:060000000A128A110F2C08
:10081E00F90183010A128A11C12D8316031398124E
:10082E008312031318129813831603130713080069
:10083E00F00083160313981C252C262C202C7008F0
:10084E0083120313990008000310003003180130BF
:10085E00F20083120313A71F352C362C442CA40947
:10086E00A509A609A709A40A0319A50A0319A60A28
:10087E000319A70AF2010314F20DA31F472C482CEB
:10088E00572CA009A109A209A309A00A0319A10ABC
:10089E000319A20A0319A30A0130F0007008F20628
:1008AE000030F6000030F5000030F4000030F300A8
:1008BE0027082604250424040319662C672CB52C5E
:1008CE00F1010314F10D782C0130F0000310A40D8A
:1008DE00A50DA60DA70DF00B6D2C0130F0007008C4
:1008EE00F107A71F7B2C7C2C6B2C0130F000031022
:1008FE00F30DF40DF50DF60DF00B7E2C27082302EB
:10090E00031D932C26082202031D932C2508210279
:10091E00031D932C24082002031C962C972CA62C26
:10092E002408A0022508031C250FA1022608031C7B
:10093E00260FA2022708031C270FA30273140130EF
:10094E000310A70CA60CA50CA40CFF3E031DA72C90
:10095E000130F102031DB42CB52C7C2C7208031D42
:10096E00B92CC42CF309F409F509F609F30A031995
:10097E00F40A0319F50A0319F60A7608A300750896
:10098E00A2007408A1007308A000080000308312B2
:10099E000313A8000930A9003D30AA000030AB00B7
:1009AE003408AC003508AD003608AE003708AF008D
:1009BE0006300310AC0DAD0DAE0DAF0DFF3E031D99
:1009CE00E02CAC09AD09AE09AF09AC0A0319AD0AAA
:1009DE000319AE0A0319AF0A2C08A8072D0803182D
:1009EE002D0FFA2CFB2CA9072E0803182E0F002D05
:1009FE00012DAA072F0803182F0AAB072B08A300F7
:100A0E002A08A2002908A1002808A0003408B00076
:100A1E003508B1003608B2003708B30006300310AF
:100A2E00B00DB10DB20DB30DFF3E031D162D3308E3
:100A3E00A7003208A6003108A5003008A4000A124B
:100A4E008A112B240A128A1183138312031321088D
:100A5E00F801F8072008F701F70701307802003097
:100A6E0003197702031C3C2D3D2DA52D0030A80047
:100A7E000930A9003D30AA000030AB003408AC00AC
:100A8E003508AD003608AE003708AF00043003104D
:100A9E00AC0DAD0DAE0DAF0DFF3E031D4E2DAC09D1
:100AAE00AD09AE09AF09AC0A0319AD0A0319AE0AB6
:100ABE000319AF0A2C08A8072D0803182D0F682D4F
:100ACE00692DA9072E0803182E0F6E2D6F2DAA075C
:100ADE002F0803182F0AAB072B08A3002A08A20021
:100AEE002908A1002808A0003408B0003508B1007C
:100AFE003608B2003708B30004300310B00DB10D44
:100B0E00B20DB30DFF3E031D842D3308A70032082E
:100B1E00A6003108A5003008A4000A128A112B2461
:100B2E000A128A118313831203132108F801F8079E
:100B3E002008F701F7078316031318150130780202
:100B4E000030031977020318AD2DAE2DC02D770896
:100B5E008316031399001812831203139817831622
:100B6E00031387170717831203131816831603131D
:100B7E0098160800FF30831603138600BB308700DB
:100B8E00031000300318013083120313870019304D
:100B9E00831603139200043083120313920019304C
:100BAE0095003C309700871ADD2DDE2D042E003087
:100BBE00B7000030B6001230B500C030B4000A12D3
:100BCE008A11CD240A128A110C3083120313950058
:100BDE0041300A128A111F240A128A11831203133A
:100BEE00871EFA2DFB2DF52D0A128A1114240A12D6
:100BFE008A1119308312031395008619072E082EB9
:100C0E002E2E0030B7000030B6001230B500C030C6
:100C1E00B4000A128A11CD240A128A110C308312E2
:100C2E000313950042300A128A111F240A128A11E8
:100C3E0083120313861D242E252E1F2E0A128A11AF
:100C4E0014240A128A111930831203139500861B7D
:100C5E00312E322E582E0030B7000030B600123032
:100C6E00B500C030B4000A128A11CD240A128A11BE
:100C7E000C3083120313950043300A128A111F247D
:100C8E000A128A1183120313861F4E2E4F2E492EDF
:100C9E000A128A1114240A128A11193083120313AC
:100CAE009500071A5B2E5C2E822E0030B7000030A6
:100CBE00B6001230B500C030B4000A128A11CD242D
:100CCE000A128A110C3083120313950044300A1253
:100CDE008A111F240A128A1183120313071E782EFB
:100CEE00792E732E0A128A1114240A128A111930BF
:100CFE008312031395000619852E862EAC2E003016
:100D0E00B7000030B6001230B500C030B4000A1281
:100D1E008A11CD240A128A110C3083120313950006
:100D2E0045300A128A111F240A128A1183120313E4
:100D3E00061DA22EA32E9D2E0A128A1114240A120B
:100D4E008A111930831203139500061BAF2EB02E95
:100D5E00D62E0030B7000030B6001230B500C030CD
:100D6E00B4000A128A11CD240A128A110C30831291
:100D7E000313950046300A128A111F240A128A1193
:100D8E0083120313061FCC2ECD2EC72E0A128A11E4
:100D9E0014240A128A1119308312031395000718AE
:100DAE00D92EDA2E002F0030B7000030B6001230E8
:100DBE00B500C030B4000A128A11CD240A128A116D
:100DCE000C3083120313950047300A128A111F2428
:100DDE000A128A1183120313071CF62EF72EF12E18
:100DEE000A128A1114240A128A111930831203135B
:100DFE0095000618032F042F2A2F0030B70000305D
:100E0E00B6001230B500C030B4000A128A11CD24DB
:100E1E000A128A110C308312031395004B300A12FA
:100E2E008A111F240A128A1183120313061C202F03
:100E3E00212F1B2F0A128A1114240A128A1119301B
:100E4E0083120313950086182D2F2E2F542F00304A
:100E5E00B7000030B6001230B500C030B4000A1230
:100E6E008A11CD240A128A110C30831203139500B5
:100E7E0048300A128A111F240A128A118312031390
:100E8E00861C4A2F4B2F452F0A128A1114240A1240
:100E9E008A111930831203139500861A572F582F73
:100EAE007E2F0030B7000030B6001230B500C030D3
:100EBE00B4000A128A11CD240A128A110C30831240
:100ECE000313950049300A128A111F240A128A113F
:100EDE0083120313861E742F752F6F2F0A128A1119
:100EEE0014240A128A1119308312031395008718DD
:100EFE00812F822FA82F0030B7000030B60012309D
:100F0E00B500C030B4000A128A11CD240A128A111B
:100F1E000C308312031395004A300A128A111F24D3
:100F2E000A128A1183120313871C9E2F9F2F992F4B
:100F3E000A128A1114240A128A1119308312031309
:100F4E009500061AAB2FAC2FD22F0030B700003011
:100F5E00B6001230B500C030B4000A128A11CD248A
:100F6E000A128A110C308312031395004C300A12A8
:100F7E008A111F240A128A1183120313061EC82F08
:100F8E00C92FC32F0A128A1114240A128A1119307A
:100F9E008312031395008719D52FD62FDA2D003023
:100FAE00B7000030B6001230B500C030B4000A12DF
:100FBE008A11CD240A128A110C3083120313950064
:100FCE004D300A128A111F240A128A11831203133A
:100FDE00871DF22FF32FED2F0A128A1114240A12F5
:100FEE008A111930831203139500DA2D0A128A1111
:020FFE000028C9
:02400E00323F3F
:00000001FF
