:020000040000FA
:020000000A28CC
:10000800FE00030EF1000A08F2007B2A0B28831376
:10001800423084005D306F27A0308400A8306F27FD
:1000280083011628003083120313EB002130EC0003
:100038000030E9002030EA000030E7002830E8000E
:100048000030E500C030E60083160313071387125B
:10005800071283120313D301071607178316031316
:10006800871587100614071583120313D90100306A
:10007800E4000530E3001E30E200D430E100003037
:10008800E0000030DF000030DE000230DD0000302C
:10009800C5000030C4000030C3000030C200DC01DD
:1000A800DB01DA0108248316031301138B170B17DE
:1000B8008B100B1663270130F7008030F8008B2671
:1000C800C53036270830F7008030F8008B26B12677
:1000D8006D28831203135808B2000030B21BFF309A
:1000E800B300B400B50060083506031D85285F0815
:1000F8003406031D85285E083306031D85285D0820
:1001080032060319882889289B28803036278312CD
:1001180003135E08B1005D08B00051271030362780
:10012800831203135D08B2003208D8009B285708D1
:10013800B2000030B21BFF30B300B400B500450870
:100148003506031DB12844083406031DB1284308A9
:100158003306031DB128420832060319B428B5280E
:10016800C72881303627831203134308B100420899
:10017800B000512710303627831203134208B2000B
:100188003208D700C7285C0856060319CC28CD28A2
:10019800E02883303627831203135C08B000B101CE
:1001A800B01BB103512710303627831203135C08A4
:1001B800B2003208D600E0285B0855060319E52886
:1001C800E628F92884303627831203135B08B00029
:1001D800B101B01BB1035127103036278312031326
:1001E8005B08B2003208D500F9285A0854060319EA
:1001F800FE28FF28122985303627831203135A0850
:10020800B000B101B01BB10351271030362783125B
:1002180003135A08B2003208D40012295A08F3000E
:10022800F401F31BF4031130F5000030F6006326E7
:10023800730883120313B2007408B3000030B31BB1
:10024800FF30B400B5005B08F300F401F31BF403BE
:10025800A830F5000030F6006326730883120313F4
:10026800B6007408B7000030B71BFF30B800B900FB
:100278005C08F300F401F31BF4038E30F50006303C
:10028800F6006326730883120313BA007408BB00D0
:100298000030BB1BFF30BC00BD004508F600440819
:1002A800F5004308F4004208F3000030FA0000307B
:1002B800F9004130F8008B30F700E224730883120C
:1002C8000313BE007408BF007508C0007608C1009B
:1002D8006008F6005F08F5005E08F4005D08F300AA
:1002E8000030FA000230F9008F30F8006A30F70069
:1002F800E224730883120313BE0774080318740FEB
:1003080086298729BF0775080318750F8C298D2939
:10031800C00776080318760AC1073E08BA073F08DF
:1003280003183F0F98299929BB0740080318400F65
:100338009E299F29BC0741080318410ABD073A08AE
:10034800B6073B0803183B0FAA29AB29B7073C0897
:1003580003183C0FB029B129B8073D0803183D0A16
:10036800B9073608B20737080318370FBC29BD2963
:10037800B30738080318380FC229C329B407390846
:100388000318390AB5073508C9003408C800330806
:10039800C7003208C60064084906031DDD29630842
:1003A8004806031DDD2962084706031DDD2961088B
:1003B80046060319E029E1291B2A5303031DE529F1
:1003C800E629FB294908A3004808A2004708A1001C
:1003D8004608A000A401FC25831203136A08F40050
:1003E8006908F300792583120313D301122A4908F7
:1003F800A3004808A2004708A1004608A000A401DD
:10040800A40AFC25831203136808F4006708F300A4
:10041800792583120313D301D30A122A4908E40069
:100428004808E3004708E2004608E1001B2A87194C
:100438001E2A1F2A6D28823083120313B300DD3071
:10044800B200B20B252AB30B252A0000831203132E
:100458005208031D302A312A522A14303627013017
:1004680083120313B2003208D90702305906031D5C
:100478003E2A3F2A462A0130B2003208D9071430F2
:100488003627462A0530831203135906031D4D2AC1
:100498004E2A722AD201D20A722A722A10303627BC
:1004A800FF3083120313B2003208D907023059060D
:1004B800031D5F2A602A672AFF30B2003208D90775
:1004C80010303627672A831203135908031D6D2A33
:1004D8006E2A722AD201722A722A722A871D752AF6
:1004E800762A722A6D286D286D286D280A288B1C9B
:1004F8007E2A7F2A012C83120313071D842A852A4A
:10050800422BE01B982A6008031D972A5F08031DE9
:10051800972A5E08031D972A05305D02031D942A59
:100528000318972A982AFA2B05305906031D9D2A85
:100538009E2AA22A0130F0007008DA070430590612
:100548000319A72AA82AB02A5A08803A763E031C1B
:10055800AE2AAF2AB42AB02A0130F0007008DB07AF
:10056800033059060319B92ABA2AC22A5B08803A05
:10057800763E031CC02AC12AC62AC22A0130F000CE
:100588007008DC0759030319CA2ACB2AD32A5C0846
:10059800803A763E031CD12AD22AE22AD32A013095
:1005A800C207003003180130C307003003180130B8
:1005B800C407003003180130C507E22A5908031997
:1005C800E62AE72AFB2AC51BF92A4508031DFA2A49
:1005D8004408031DFA2A4308031DFA2A0A30420276
:1005E800031DF62A031CF92AFA2A0A2BFB2A0130D2
:1005F800DD07003003180130DE0700300318013032
:10060800DF07003003180130E0070A2BC51B1C2B3D
:100618004508031D1D2B4408031D1D2B4308031DFE
:100628001D2B0A304202031D192B031C1C2B1D2BEA
:10063800252B0030C5000030C4000030C300003056
:10064800C2005C08803A763E031C2B2B2C2B2E2BE9
:10065800DC012E2B5B08803A763E031C342B352BAD
:10066800372BDB01372B5A08803A763E031C3D2B8B
:100678003E2BFA2BDA01FA2BFA2BFA2B0530590606
:10068800031D472B482B4C2BFF30F0007008DA076E
:10069800043059060319512B522B572BDA1F552BAF
:1006A800562B5B2B572BFF30F0007008DB0703300D
:1006B80059060319602B612B662BDB1F642B652BF6
:1006C8006A2B662BFF30F0007008DC07590303190A
:1006D8006E2B6F2B742BDC1F722B732B802B742BC0
:1006E800FF30C207FF30031CC307FF30031CC407D9
:1006F800FF30031CC507802B59080319842B852B51
:100708008A2BC51F882B892B962B8A2BFF30DD0758
:10071800FF30031CDE07FF30031CDF07FF30031C1C
:10072800E007962BE01BA92B6008031DA82B5F0888
:10073800031DA82B5E08031DA82B01305D02031DB5
:10074800A52B0318A82BA92BD12B0030E0000030D3
:10075800DF000030DE000130DD00C51FB42BB52BF3
:10076800BE2B0030C5000030C4000030C30000308C
:10077800C200BE2BDC1FC12BC22BC42BDC01C42B37
:10078800DB1FC72BC82BCA2BDB01CA2BDA1FCD2BCB
:10079800CE2BFA2BDA01FA2BFA2BC51FD42BD52B2B
:1007A800DE2B0030C5000030C4000030C300093023
:1007B800C200DE2BDC1FE12BE22BE72B0930F00017
:1007C8007008DC00E72BDB1FEA2BEB2BF02B093042
:1007D800F0007008DB00F02BDA1FF32BF42BFA2B58
:1007E8000930F0007008DA00FA2BFA2BF930F00023
:1007F800F00BFC2BFF2B8B10012C72088A00710E5A
:100808008300FE0E7E0E0900831603138610061160
:100818008611061286128713831203138612061294
:100828008611061186108713C330F800CD30F70003
:10083800F70B1C2CF80B1C2C0330D3262E30F80099
:100848007330F700F70B262CF80B262C0330D32631
:100858000430F8003D30F700F70B302CF80B302C43
:10086800352C0330D3260630F8008330F700F70B19
:100878003B2CF80B3B2C402C0230D3260330F800DD
:100888009730F700F70B462CF80B462C4B2C2830EA
:100898003627D630F700502C512CF70B4F2C000080
:1008A800D630F700572C582CF70B562C00000E307A
:1008B8003627D630F700602C612CF70B5F2C000030
:1008C80006303627D630F700692C6A2CF70B682CCF
:1008D800000080303627D630F700722C732CF70BC7
:1008E800712C0000080083120313A8002108A60039
:1008F8002008A5007F2C2308F4002208F30026080E
:10090800F6002508F5002E25740883120313A600A7
:100918007308A5000130A4002408A80725082604A8
:10092800031D972C982C7F2C992C2808840083135E
:1009380080010130A802A02C2308F4002208F3004B
:100948002108F6002008F500BB257308831203135D
:10095800A4002408A7002308F4002208F3002108B3
:10096800F6002008F5002E25740883120313A10051
:100978007308A0000A302702031CC32CC42CC82CFF
:100988000730A4002408A7073030A4002408A707CC
:100998002708A40028088400240883138000013055
:1009A800A80220082104031DDA2CDB2CA02CDC2C47
:1009B8000130A4002408A807E12C080000308312A5
:1009C8000313A4000030A3000030A2000030A100EF
:1009D800ED2C731CF02CF12C092D7708A107780851
:1009E80003110318013E0319FA2CA2077908031111
:1009F8000318013E0319012DA3077A0803110318F0
:100A0800013E0319082DA407092D0130A000031089
:100A1800F70DF80DF90DFA0DA00B0B2D0130031091
:100A2800F60CF50CF40CF30CFF3E031D132D7608A1
:100A3800750474047304031D222D232DED2C242D1D
:100A48002408F6002308F5002208F4002108F30022
:100A58002D2D0800F801F901730874040319352DC8
:100A6800362D732DFA01FA0A452D01300310F30DC6
:100A7800F40DFF3E031D3A2D0130F7007708FA0701
:100A8800452DF41F482D492D392D4B2D4B2D013067
:100A98000310F80DF90DFF3E031D4C2D7408760266
:100AA800031D582D73087502031C5B2D5C2D642DE6
:100AB8007308F5027408031CF603F6027814642D13
:100AC80001300310F40CF30CFF3E031D652D0130BB
:100AD800FA02031D702D712D4B2D732D732D79087E
:100AE800F4007808F300782D080083120313071226
:100AF8007D2D7E2D0000F60110307602031C852D19
:100B0800862D882DAE2DAE2DF41F8B2D8C2D902D7E
:100B1800831203138716932D831203138712942DC0
:100B2800952D00008312031307139A2D9B2D0000A7
:100B38008312031307170310730DF300740DF400E9
:100B48000130F5007508F60710307602031CAD2D4C
:100B5800AE2D882D831203138712B22DB32D0000FA
:100B6800831203130716B82DB92D00000800730867
:100B780074040319C02DC12DF62DF801F80AD02DE3
:100B880001300310F30DF40DFF3E031DC52D013098
:100B9800F7007708F807D02DF41FD32DD42DC42DD6
:100BA800D62DD62D74087602031DDC2D7308750228
:100BB800031CDF2DE02DE72D7308F5027408031CD4
:100BC800F603F602E72D01300310F40CF30CFF3E98
:100BD800031DE82D0130F802031DF32DF42DD62D49
:100BE800F62DF62D7608F4007508F300FB2D0800A5
:100BF800FF30831203132005CE003F302105CF00BC
:100C08002008F7002108F8002208F9002308FA0054
:100C18000E300310FA0CF90CF80CF70CFF3E031D0C
:100C28000D2E7808D1007708D000FF30D0053F306E
:100C3800D1052408031D212E222E252E4F175117CA
:100C48002E2E2403031D292E2A2E2E2ECF17D11720
:100C58002E2E2E2E4F08F4004E08F300792583120D
:100C680003135108F4005008F30079250800831293
:100C78000313AF002F08AD002D08AE00AA1F452EA4
:100C8800462E572E2D30AD002F0884002D088313D3
:100C980080000130AD002D08AF07A909AA09A90AEB
:100CA8000319AA0A572E2A08A1002908A0002C080F
:100CB800A3002B08A2002F087724622E0800F70152
:100CC800F801662E731C692E6A2E702E7508F707B8
:100CD8000318F80A7608F80701300310F50DF60D29
:100CE800FF3E031D712E01300310F40CF30CFF3E80
:100CF800031D782E73087404031D832E842E662E1C
:100D0800852E7808F4007708F3008A2E0800F90188
:100D1800FA01A02E79087707840078080318780A62
:100D280083120313FF0000271B270130F90703185C
:100D3800FA0A0030FA07A02E7908770784007808A5
:100D48000318780A83120313FF000027003A031DD3
:100D5800AE2EAF2E8E2EB02E0800831203136C0811
:100D6800F4006B08F3007925003083120313A30005
:100D78000530A2001E30A100D430A000A401FC253B
:100D8800831203136608F4006508F30079258312BB
:100D980003136A08F4006908F30079250800F400D1
:100DA8007408F30001300310F30DFF3E031DD72E26
:100DB8000310730D8312031386008614C730F300E3
:100DC800E52EF30BE42EE82EE92E8312031386108A
:100DD800C730F300EF2EF30BEE2EF22EF32E0800A1
:100E0000FF1B0A2F83137F1883170008840A031916
:100E1000FF0A080007308A000408840A82070034A9
:100E2000323430342E3430343034303400344B34B7
:100E300048347A340034F600831203138717F930EC
:100E4000F500F50B212F242F7608F5000430031050
:100E5000F50CFF3E031D272F7508D326F930F5004A
:100E6000F50B302F332F7608D3260800F6008312B7
:100E700003138713F930F500F50B3C2F3F2F76084D
:100E8000F50004300310F50CFF3E031D422F7508DA
:100E9000D326F930F500F50B4B2F4E2F7608D326CD
:100EA0000800831203133108AA003008A9000A3091
:100EB000AB000030AC00A0303B26A030F700003083
:100EC000F8008B260800013036270D30F800FB3083
:100ED000F700F70B692FF80B692F6E2F08006400DD
:0E0EE0008001840A0406031900340406702FF2
:02400E007AFF37
:00000001FF
