:020000040000FA
:08000000803102288731F52F41
:100DF600640080010131890BFC2E003420000E12A4
:100E06000032F301F11F0A2F20008E160C2F20004E
:100E16008E12003220000E13003220000E1770359D
:100E2600F000710DF1000130F2007208F307103086
:100E36007302031C052F8E12003220000E1600329C
:100E4600080020004008F1003F08F0008731012724
:100E560087310030F7000530F6001E30F500D4303B
:100E6600F400F80187314827873120003A08F1005D
:100E76003908F00087310127873120003E08F1004C
:100E86003D08F000873101270800FF307405200077
:100E9600B0003F307505B1007408F9007508FA0016
:100EA6007608FB007708FC000E30FC36FB0CFA0CCB
:100EB600F90C890B582F7A08B3007908B200FF3075
:100EC600B2053F30B3057808031D6C2F3117331771
:100ED600712F7803031D712FB117B3173108F10075
:100EE6003008F00087310127873120003308F100F0
:100EF6003208F00087310127080000302000BF00CB
:100F06002130C0000030BD002030BE000030BB00E4
:100F16002830BC000030B900C030BA0021000E13E2
:100F26008E120E12FD0120000E160E170030B800AC
:100F36000330B7004630B600DC30B500210015138B
:100F46008B170B178B100B16873124278731200040
:100F56002B083806031DB92F2A083706031DB92F9B
:100F660029083606031DB92F280835060319AA2FA6
:100F76007D03031DD42F3808F7003708F60036081E
:100F8600F5003508F400F80187314827873120003D
:100F96003E08F1003D08F000873101278731FD0149
:100FA600EB2F3808F7003708F6003608F500350845
:100FB600F400F801F80A87314827873120003C08F9
:100FC600F1003B08F000873101278731FD01FD0A5A
:100FD60020003808AB003708AA003608A9003508F3
:100FE600A800AA2FFD0120308400003085001530AE
:0A0FF6008631FB2620008731802F92
:020000040001F9
:04000E00E4EFFFD844
:00000001FF
