:020000040000FA
:060000000A128A110C280F
:10000800FE00030EF1000A08F2000A128A116A2C97
:100018000A128A110F28F901FA018313203084008B
:1000280049300A128A15AA250A128A11A0308400BA
:10003800B2300A128A15AA2583010A128A112428C5
:10004800003083160313CE00F830CF000030C8000C
:10005800C030C9000030C6009030C7000030CC0066
:100068006030CD000030CA006830CB00071387121B
:10007800071283120313C301071607178316031306
:100088008715871006140715003083120313A30081
:100098000030A2000030A1000030A000003083161C
:1000A8000313C5003530C4005530C3007030C2009A
:1000B800003083120313E1000030E0000030DF005D
:1000C8000230DE000030B3000030B2000030B10072
:1000D8000030B0000030AF000030AE000030AD009E
:1000E8000030AC000030AB000030AA000030A9009E
:1000F8000030A8000030A7000030A6000030A5009E
:100108000030A4000A128A11FE260A128A118316E8
:10011800031301138B170B178B100B160A128A1572
:10012800B2250A128A110130F7008030F8000A124D
:100138008A1549260A128A11C5300A128A15DA2543
:100148000A128A110830F7008030F8000A128A155E
:1001580049260A128A110A128A1195270A128A1147
:1001680083120313480883160313B2000030B21B2E
:10017800FF30B300B400B50083120313610883167F
:1001880003133506031DDE28831203136008831644
:1001980003133406031DDE28831203135F08831636
:1001A80003133306031DDE28831203135E08831628
:1001B800031332060319012980300A128A15DA2539
:1001C8000A128A11831203135F08DD005E08DC003F
:1001D8000A128A15C2250A128A1110300A128A15C3
:1001E800DA250A128A11831203135E088316031391
:1001F800B200320883120313C8008312470883161B
:100208000313B2000030B21BFF30B300B400B500D6
:10021800831203133308831603133506031D2A2993
:10022800831203133208831603133406031D2A2985
:10023800831203133108831603133306031D2A2977
:1002480083120313300883160313320603194D294A
:1002580081300A128A15DA250A128A1183120313C9
:100268003108DD003008DC000A128A15C2250A129E
:100278008A1110300A128A15DA250A128A11831295
:100288000313300883160313B200320883120313D2
:10029800C7008312460883160313B2000030B21B4E
:1002A800FF30B300B400B500831203132F08831680
:1002B80003133506031D7629831203132E088316AC
:1002C80003133406031D7629831203132D0883169E
:1002D80003133306031D7629831203132C08831690
:1002E800031332060319992983300A128A15DA256D
:1002F8000A128A11831203132D08DD002C08DC0072
:100308000A128A15C2250A128A1110300A128A1591
:10031800DA250A128A11831203132C088316031391
:10032800B200320883120313C600831245088316ED
:100338000313B2000030B21BFF30B300B400B500A5
:10034800831203132B08831603133506031DC229D2
:10035800831203132A08831603133406031DC229C4
:10036800831203132908831603133306031DC229B6
:100378008312031328088316031332060319E52989
:1003880084300A128A15DA250A128A118312031395
:100398002908DD002808DC000A128A15C2250A127D
:1003A8008A1110300A128A15DA250A128A11831264
:1003B8000313280883160313B200320883120313A9
:1003C800C5008312440883160313B2000030B21B21
:1003D800FF30B300B400B500831203132708831657
:1003E80003133506031D0E2A8312031326088316EA
:1003F80003133406031D0E2A8312031325088316DC
:1004080003133306031D0E2A8312031324088316CD
:10041800031332060319312A85300A128A15DA25A0
:100428000A128A11831203132508DD002408DC0050
:100438000A128A15C2250A128A1110300A128A1560
:10044800DA250A128A118312031324088316031368
:10045800B200320883120313C40083122708CC00A9
:100468002608CB002508CA002408C9000030D0009F
:100478000030CF000030CE00AF30CD000A128A1510
:1004880053270A128A118312031349088316031388
:10049800B200831203134A0883160313B3008312AE
:1004A80003134B0883160313B400831203134C0879
:1004B80083160313B500831203132B08CC002A08F4
:1004C800CB002908CA002808C9000030D000003035
:1004D800CF000630CE00D430CD000A128A1553273B
:1004E8000A128A1183120313490883160313B600EC
:1004F800831203134A0883160313B70083120313E6
:100508004B0883160313B800831203134C08831691
:100518000313B900831203132F08CC002E08CB0055
:100528002D08CA002C08C9000030D0000030CF00C8
:100538004430CE004530CD000A128A1553270A12DE
:100548008A1183120313490883160313BA0083120E
:1005580003134A0883160313BB00831203134B08C3
:1005680083160313BC00831203134C08831603136A
:10057800BD00831203133308CC003208CB003108C6
:10058800CA003008C9000030D0000230CF00AA30BD
:10059800CE00AD30CD000A128A1553270A128A11EF
:1005A80083120313490883160313BE00831203132F
:1005B8004A0883160313BF00831203134B088316DC
:1005C8000313C000831203134C0883160313C100DE
:1005D800831203136108CC006008CB005F08CA00CF
:1005E8005E08C9000030D0001A30CF00AA30CE0013
:1005F800C230CD000A128A1553270A128A118312B3
:100608000313490883160313BE07831203134A080A
:1006180003184A0F102B132B83160313BF078312DB
:1006280003134B0803184B0F1A2B1D2B83160313A8
:10063800C007831203134C0803184C0A83160313CC
:10064800C1073E08BA073F0803183F0F2C2B2D2B74
:10065800BB0740080318400F322B332BBC07410857
:100668000318410ABD073A08B6073B0803183B0FB1
:100678003E2B3F2BB7073C0803183C0F442B452B58
:10068800B8073D0803183D0AB9073608B207370806
:100698000318370F502B512BB30738080318380F9E
:1006A800562B572BB40739080318390AB5073508EC
:1006B80083120313B700831603133408831203133A
:1006C800B60083160313330883120313B500831689
:1006D8000313320883120313B40083160313450867
:1006E800831203133706031D8F2B83160313440845
:1006F800831203133606031D8F2B83160313430837
:10070800831203133506031D8F2B83160313420828
:100718008312031334060319E52B4303031DB12B7E
:100728003708CC003608CB003508CA003408C900A1
:10073800CD010A128A115F260A128A118316031341
:100748004D08F4004C08F3000A128A15A8260A126C
:100758008A1183120313C301CF2B3708CC00360844
:10076800CB003508CA003408C900CD01CD0A0A12E9
:100778008A115F260A128A11831603134B08F400A4
:100788004A08F3000A128A15A8260A128A11831247
:100798000313C301C30A370883160313C500831262
:1007A8000313360883160313C40083120313350892
:1007B80083160313C3008312031334088316031329
:1007C800C20083120719B428823083160313B300BA
:1007D800DD30B200B20BEE2BB30BEE2B83120313FA
:1007E8004208031D342C14300A128A15DA250A121D
:1007F8008A11013083120313A00700300318013057
:10080800A107003003180130A20700300318013097
:10081800A30702302006210422042304031D282CE8
:100828000130A007003003180130A1070030031879
:100838000130A207003003180130A30714300A1250
:100848008A15DA250A128A11053083120313200645
:10085800210422042304031D672CC201C20A672C49
:1008680010300A128A15DA250A128A11FF3083120B
:100878000313A007FF30031CA107FF30031CA207C6
:10088800FF30031CA307023020062104220423049E
:10089800031D5F2CFF30A007FF30031CA107FF30AA
:1008A800031CA207FF30031CA30710300A128A1585
:1008B800DA250A128A118312031323082204210459
:1008C80020040319C2010719B428672C8B1C582E61
:1008D80083120313871D902DE11B812C6108031DD2
:1008E800522E6008031D522E5F08031D522E05303C
:1008F8005E02031D7F2C0318522E053020062104AA
:1009080022042304031D962C0130A4070030031889
:100918000130A507003003180130A607003003187E
:100928000130A707043020062104220423040319F8
:10093800AE2CA71BBC2C2708031DAE2C2608031DB4
:10094800AE2C2508031DAE2C0A302402031DAC2C46
:10095800031CBC2C0130A807003003180130A9077C
:10096800003003180130AA07003003180130AB0724
:10097800033020062104220423040319D42CAB1BC2
:10098800E22C2B08031DD42C2A08031DD42C29087B
:10099800031DD42C0A302802031DD22C031CE22C80
:1009A8000130AC07003003180130AD0700300318E0
:1009B8000130AE07003003180130AF0720032104CF
:1009C800220423040319F92CAF1B072D2F08031D3C
:1009D800F92C2E08031DF92C2D08031DF92C0A30BB
:1009E8002C02031DF72C031C072D0130B007003023
:1009F80003180130B107003003180130B207003086
:100A080003180130B3072308220421042004031922
:100A18001E2DB31B2C2D3308031D1E2D3208031D5C
:100A28001E2D3108031D1E2D0A303002031D1C2DFA
:100A3800031C2C2D0130DE07003003180130DF07BE
:100A4800003003180130E007003003180130E107D7
:100A5800B31B452D3308031D3D2D3208031D3D2DC5
:100A68003108031D3D2D0A303002031D3B2D031CA8
:100A7800452D0030B3000030B2000030B100003026
:100A8800B000AF1B5E2D2F08031D562D2E08031D29
:100A9800562D2D08031D562D0A302C02031D542DEA
:100AA800031C5E2D0030AF000030AE000030AD00FA
:100AB8000030AC00AB1B772D2B08031D6F2D2A08C7
:100AC800031D6F2D2908031D6F2D0A302802031DF1
:100AD8006D2D031C772D0030AB000030AA000030CC
:100AE800A9000030A800A71B522E2708031D882D37
:100AF8002608031D882D2508031D882D0A30240289
:100B0800031D862D031C522E0030A7000030A600BE
:100B18000030A5000030512E0530200621042204A3
:100B28002304031DA22DFF30A407FF30031CA507D3
:100B3800FF30031CA607FF30031CA707043020065C
:100B48002104220423040319AB2DA71FB62DFF305F
:100B5800A807FF30031CA907FF30031CAA07FF30B2
:100B6800031CAB07033020062104220423040319C5
:100B7800BF2DAB1FCA2DFF30AC07FF30031CAD07DC
:100B8800FF30031CAE07FF30031CAF07200321040E
:100B9800220423040319D22DAF1FDD2DFF30B00727
:100BA800FF30031CB107FF30031CB207FF30031CE2
:100BB800B30723082204210420040319E52DB31FD9
:100BC800F02DFF30DE07FF30031CDF07FF30031C6A
:100BD800E007FF30031CE107E11B012E6108031D3C
:100BE8002A2E6008031D2A2E5F08031D2A2E0130B5
:100BF8005E02031DFF2D03182A2E0030E10000308D
:100C0800E0000030DF000130DE00B31F132E00309B
:100C1800B3000030B2000030B1000030B000AF1FA8
:100C28001D2E0030AF000030AE000030AD000030A7
:100C3800AC00AB1F272E0030AB000030AA000030FC
:100C4800A9000030A800A71B882D522EB31F342EF0
:100C58000030B3000030B2000030B1000930B000FD
:100C6800AF1F3E2E0030AF000030AE000030AD00A8
:100C78000930AC00AB1F482E0030AB000030AA0092
:100C88000030A9000930A800A71F522E0030A70085
:100C98000030A6000030A5000930A400F930F000AB
:100CA800F00B542E572E8B1072088A00710E830099
:100CB800FE0E7E0E0900FF30831203134905BE00A5
:100CC80000304A05BF004908CE004A08CF004B084B
:100CD800D0004C08D10008300310D10CD00CCF0C38
:100CE800CE0CFF3E031D702E4F08BB004E08BA0005
:100CF800FF30BA050030BB054908CE004A08CF00CE
:100D08004B08D0004C08D10010300310D10CD00C87
:100D1800CF0CCE0CFF3E031D892E4F08C1004E0894
:100D2800C000FF30C0050030C1054908CE004A08A0
:100D3800CF004B08D0004C08D10018300310D10C5C
:100D4800D00CCF0CCE0CFF3E031DA22E4F08BD00C9
:100D58004E08BC00FF30BC050030BD054D08031D22
:100D6800C22EBF160030BA042130BB040030C004C4
:100D78002230C1040030BC042330D42E4D03031D9F
:100D8800D52E0030BE042430BF040030BA0425300C
:100D9800BB040030C0042630C1040030BC04273036
:100DA800BD043F08F4003E08F3000A128A15A8267D
:100DB8000A128A11831203133B08F4003A08F3005D
:100DC8000A128A15A8260A128A11831203134108E7
:100DD800F4004008F3000A128A15A8260A128A119C
:100DE800831203133D08F4003C08F3000A128A1525
:100DF800A82608008316031386100611861106120A
:100E0800861287138316031709108910091109120E
:100E1800891289118312031386120612861106118C
:100E280086108713C330F800CD30F700F70B1A2F60
:100E3800F80B1A2F03300A128A151D260A128A1176
:100E48002E30F8007330F700F70B282FF80B282FF7
:100E580003300A128A151D260A128A110430F80076
:100E68003D30F700F70B362FF80B362F3B2F0330AA
:100E78000A128A151D260A128A110630F8008330D4
:100E8800F700F70B452FF80B452F4A2F02300A12AF
:100E98008A151D260A128A110330F8009730F700C8
:100EA800F70B542FF80B542F592F28300A128A1594
:100EB800DA250A128A11D630F700622F632FF70B52
:100EC800612F0000D630F700692F6A2FF70B682FC3
:100ED80000000E300A128A15DA250A128A11D63055
:100EE800F700762F772FF70B752F000006300A12C0
:100EF8008A15DA250A128A11D630F700832F842F33
:100F0800F70B822F000080300A128A15DA250A12A0
:100F18008A11D630F700902F912FF70B8F2F0000F2
:100F28000800831603134F08F4004E08F3000A1252
:100F38008A15A8260A128A11831603134708F40093
:100F48004608F3000A128A15A8260A128A110030E8
:100F580083120313CC001A30CB00AA30CA00B83071
:100F6800C900CD010A128A115F260A128A110030BF
:100F780083120313CC000030CB000030CA000030CD
:100F8800C9000A128A15DC260A128A11831603136D
:100F98004D08F4004C08F3000A128A15A8260A1214
:100FA8008A11831603134908F4004808F3000A124B
:100FB8008A15A8260800F600831203138717F9304C
:100FC800F500F50BE52FE82F7608F500043003103F
:100FD800F50CFF3E031DEB2F75080A128A151D2616
:100FE8000A128A11F930F500F50BF82FFB2F760855
:100FF8000A128A151D260800FF1B0A2883137F186A
:1010080083170008840A0319FF0A080008308A00B9
:101018000408840A82070034323430342E343034E1
:0E1028003034303400344B3448347A340034E1
:101B540064008001840A0406031900340406AB2DD2
:101B640001300A128A15DA250A128A150D30F80096
:101B7400FB30F700F70BBC2DF80BBC2DC12D080072
:101B8400831203135D08D6005C08D5000A30D70021
:101B94000030D800AA300A128A15FB250A128A15C9
:101BA400AA30F7000030F8000A128A154926080006
:101BB400F600831203138713F930F500F50BE02DBB
:101BC400E32D7608F50004300310F50CFF3E031DE9
:101BD400E62D75080A128A151D260A128A15F9308F
:101BE400F500F50BF32DF62D76080A128A151D263D
:101BF400080083120313DB00D61F102E2D30D900EA
:101C04005B0884005908831380000130D900590807
:101C1400DB07D509D609D50A0319D60A5608CD001B
:101C24005508CC005808CF005708CE005B080A12AC
:101C34008A1594270800F400F41D242E831203133C
:101C44008616272E831203138612741D2B2E061656
:101C54002C2E0612F41C302E8615312E8611741C7F
:101C6400352E0615362E06118614C730F3003A2E8B
:101C7400F30B392E3D2E3E2E831203138610C730EC
:101C8400F300442EF30B432E472E482E08008312F4
:101C94000313C901CA0149087707840078080318A7
:101CA400780AFF000A128A1500200A128A15003ADF
:101CB4000319080049087707840078080318780A8C
:101CC400FF000A128A1500200A128A150A128A11C4
:101CD400DF270A128A15013083120313C907031878
:101CE400CA0A0030CA074D2E730874040319A32EC0
:101CF400F801F80AF41B8A2E01300310F30DF40DD9
:101D0400FF3E031D7F2E0130F7007708F8077C2E75
:101D140074087602031D902E73087502031C982E16
:101D24007308F5027408031CF603F602013003106D
:101D3400F40CF30CFF3E031D992E0130F802031D31
:101D44008A2E7608F4007508F30008008312031342
:101D54000712AC2EAD2E0000F601F41FB52E83122F
:101D640003138716B82E831203138712B92EBA2EC3
:101D74000000831203130713BF2EC02E000083122A
:101D8400031307170310730DF300740DF4000130EF
:101D9400F5007508F60710307602031CAF2E871283
:101DA400D32ED42E0000831203130716D92EDA2E55
:101DB40000000800FF30831203134905B800003007
:101DC4004A05B9004908CD004A08CE004B08CF00A7
:101DD4004C08D00008300310D00CCF0CCE0CCD0C26
:101DE400FF3E031DED2E4E08FA004D08F900FF30AA
:101DF400F9050030FA05B9150030F9040930FA0480
:101E04007A08F4007908F3000A128A15A8260A123F
:101E14008A15831203133908F4003808F3000A12F0
:101E24008A15A826080083120313CA01CB0173087C
:101E3400740403194E2FC901C90AF41B2D2F013054
:101E44000310F30DF40DFF3E031D222F0130F700A4
:101E54007708C9071F2F01300310CA0DCB0DFF3EB1
:101E6400031D2E2F74087602031D3A2F7308750282
:101E7400031C432F7308F5027408031CF603F602CF
:101E84004A1401300310F40CF30CFF3E031D442FDD
:101E94000130C902031D2D2F4B08F4004A08F3003A
:101EA40008000030F7000030F6000030F500003084
:101EB400F40083120313491C732F4D08F4074E08D2
:101EC40003110318013E031DF5074F0803110318FE
:101ED400013E031DF607500803110318013E031DBC
:101EE400F7070130F3000310CD0DCE0DCF0DD00D4B
:101EF400F30B752F01300310CC0CCB0CCA0CC90C9E
:101F0400FF3E031D7D2F4C084B044A044904031D66
:101F14005B2F7708CC007608CB007508CA007408DC
:101F2400C900080083120313D4004D08D2004C08E2
:101F3400D1004F08F4004E08F3005208F60051088F
:101F4400F5000A128A1515270A128A1574088312D5
:101F54000313D2007308D1000130D0005008D40715
:101F640051085204031D9B2F5408840083138001DD
:101F74000130D4024F08F4004E08F3004D08F60077
:101F84004C08F5000A128A1576260A128A15730877
:101F940083120313D0005008D3004F08F4004E08F6
:101FA400F3004D08F6004C08F5000A128A151527AF
:101FB4000A128A15740883120313CD007308CC0027
:101FC4000A305302031CEA2F0730D0005008D3070D
:101FD4003030D0005008D3075308D0005408840090
:101FE4005008831380000130D4024C084D04031DB3
:0C1FF400BC2F0130D0005008D4070800BA
:04400E00F2E3FFFFDB
:00000001FF
