:060000000A128A11CC2A4D
:1005980083010A128A112D2E0030831203138C1A3C
:1005A80001300800831603138712071687110510F8
:1005B8000800831203138C1EE22AE32ADD2A1A0894
:1005C8000800F00083160313981CEB2AEC2AE62A8D
:1005D80070088312031399000800F100031000301B
:1005E80003180130F0003A3071020318FC2AFD2A82
:1005F800062B30307102031C022B032B062BF00153
:100608000314F00D700C0800F1000030F200003007
:10061800F3001D2B72087107840000080A128A1162
:10062800E5220A128A110130F2070318F30A003092
:10063800F30772087107840083138008031D252BB4
:10064800262B0E2B080083120313A40024080A1279
:100658008A112A240A128A11831383120313210888
:10066800A301A3072008A201A20724080A128A11DD
:100678002A240A128A118313831203132108A3015F
:10068800A3072008A201A2072308A601A60722089B
:10069800A501A50708000030F0000030F100721C29
:1006A800562B572B5D2B7408F0070318F10A7508B1
:1006B800F10701300310F40DF50DFF3E031D5E2B0D
:1006C80001300310F30CF20CFF3E031D652B730879
:1006D8007204031D702B712B532B7108F301F30760
:1006E8007008F201F207080083120313AD00AF1F70
:1006F8007E2B7F2B8F2B2D30F7002D088400770859
:10070800831380000130F7007708AD07AE09AF0901
:10071800AE0A0319AF0A2F08A901A9072E08A801D4
:10072800A8073108AB01AB073008AA01AA072D08B2
:100738000A128A117E240A128A11080075087404A4
:100748000319A72BA82BD82BF1010314F10DB72BF4
:1007580001300310F40DF50DFF3E031DAD2B0130E4
:10076800F0007008F107F51FBA2BBB2BAC2B7508EE
:100778007302031DC12B74087202031CC42BC52B02
:10078800CB2B7408F2027508031CF303F302013043
:100798000310F50CF40CFF3E031DCC2B0130F102C5
:1007A800031DD72BD82BBB2B7308F301F307720853
:1007B800F201F20708000030F1000030F200831265
:1007C8000313230822040319EA2BEB2B232CF30130
:1007D8000314F30DFA2B01300310A20DA30DFF3EF5
:1007E800031DF02B0130F0007008F307A31FFD2B49
:1007F800FE2BEF2B01300310F10DF20DFF3E031D10
:10080800FF2B23082102031D0B2C22082002031CA6
:100818000E2C0F2C162C2208A0022308031CA1035F
:10082800A102711401300310A30CA20CFF3E031D9A
:10083800172C0130F302031D222C232CFE2B7208E7
:10084800A101A1077108A001A0070800F500003068
:10085800F6000030F7007508F000F1010830F200EA
:100868000310F00DF10DF20B342C7008F300710831
:10087800F40083120313871105100B30F800740875
:10088800F1007308F000780A4C2C0310F10CF00CFE
:10089800F200720B492C7018522C562C8312031339
:1008A8008716592C83120313871201300310F60D93
:1008B800F70DFF3E031D5A2C0310071A03140030CE
:1008C80003180130F000F1017008F6047108F7040C
:1008D80087158711FF30F0007008F807F81F752C8E
:1008E800762C432C05147708A101A1077608A001EE
:1008F800A007080083120313A7002908A501A5076C
:100908002808A401A4072508A101A1072408A0011B
:10091800A0072B08A301A3072A08A201A2070A120D
:100928008A11DF230A128A11831383120313210801
:10093800A501A5072008A401A4070130F600760840
:10094800A70725082404031DAA2CAB2C872C031009
:100958002708840000300318013080000130A70206
:100968002908F301F3072808F201F2072B08F5011B
:10097800F5072A08F401F4070A128A11A2230A12B9
:100988008A11720883120313A6002908A101A1077E
:100998002808A001A0072B08A301A3072A08A20181
:1009A800A2070A128A11DF230A128A1183138312FB
:1009B80003132108A901A9072008A801A8070A30DC
:1009C8002602031CE82CE92CED2C0730F6007608EB
:1009D800A6073030F6007608A6072608F60027088E
:1009E8008400760880000130A70229082804031D26
:1009F800FE2CFF2CB42C080083120313A300082D2F
:100A08000130F6007608A307230884008313000842
:100A1800203A0319102D112D042D230884000008F5
:100A2800093A0319182D192D042D0030A1000030A2
:100A3800A2000310003003180130A000230884002E
:100A480000082D3A031D292D2A2D332D0130F600DB
:100A58007608A0070130F6007608A307662D23085C
:100A6800840000082B3A031D3A2D3B2D662D0130DA
:100A7800F6007608A307662D831203132208F301F4
:100A8800F3072108F201F2070A30F4000030F500FC
:100A98000A128A114F230A128A1183120313230898
:100AA8008400831300087207F60073080318730A9A
:100AB800F7007608D03EA10077080318013EFF3EF4
:100AC800A2003B2D2308840000080A128A11F12293
:100AD8000A128A110318712D722D402D83120313E7
:100AE8002008031D782D842D2109F6002209F7001E
:100AF800F60A0319F70A7608A4007708A5008A2DD4
:100B08002208A501A5072108A401A40708000310CD
:100B1800003003180130F20083120313A71F952D2C
:100B2800962DA42DA409A509A609A709A40A0319A5
:100B3800A50A0319A60A0319A70AF2010314F20D5C
:100B4800A31FA72DA82DB72DA009A109A209A309A4
:100B5800A00A0319A10A0319A20A0319A30A01305A
:100B6800F0007008F2060030F6000030F5000030A2
:100B7800F4000030F3002708260425042404031990
:100B8800C62DC72D152EF1010314F10DD82D0130F6
:100B9800F0000310A40DA50DA60DA70DF00BCD2D8B
:100BA8000130F0007008F107A71FDB2DDC2DCB2DDD
:100BB8000130F0000310F30DF40DF50DF60DF00BF8
:100BC800DE2D27082302031DF32D26082202031D0C
:100BD800F32D25082102031DF32D24082002031CF0
:100BE800F62DF72D062E2408A0022508031C250F34
:100BF800A1022608031C260FA2022708031C270FA0
:100C0800A302731401300310A70CA60CA50CA40CA6
:100C1800FF3E031D072E0130F102031D142E152E71
:100C2800DC2D7208031D192E242EF309F409F50989
:100C3800F609F30A0319F40A0319F50A0319F60A5F
:100C48007608A3007508A2007408A1007308A00024
:100C580008000730831603139F0010308700013007
:100C68008600031000300318013085000A128A112B
:100C7800D6220A128A11003083120313C7000030EB
:100C8800C8000030B7000030B6002530B50080300D
:100C9800B4000A128A110C270A128A110A128A1140
:100CA800D0220A128A11003A03195B2E5C2E892E73
:100CB800003083120313C9000030CA000A128A11D7
:100CC800DD220A128A11F9008312031349083F3EF4
:100CD80084007908831380000130C9070318CA0A01
:100CE8000030CA074A08803AF90080307902031DAB
:100CF8007F2E04304902031C822E832E622E01307F
:100D080083120313C7000030C80083120313480876
:100D180047040319902E912E522E3F08413A031D85
:100D2800962E972EBC2E0030C9000030CA008312C0
:100D380003134908013E3F3E840083130008F9006D
:100D48004908383E8400790880000130C907031833
:100D5800CA0A0030CA074A08803AF9008030790286
:100D6800031DB82E03304902031CBB2EBC2E9B2E3C
:100D780038300A128A1100250A128A118313831245
:100D880003132508C601C6072408C501C507450879
:100D98000A128A1127230A128A1183138312031352
:100DA8002608C401C4072508C301C3074408AF01C6
:100DB800AF074308AE01AE070A30B0000030B100FB
:100DC8003B300A128A1178230A128A113B300A1220
:100DD8008A1108230A128A110A300A128A11E52296
:100DE8000A128A113B300A128A1108230A128A1140
:100DF8000A300A128A11E5220A128A110030831277
:100E08000313C7000030C800522E0A128A110028A6
:100E1800003083120313A800C030A900A830AA002C
:100E28000030AB003408AC003508AD003608AE0021
:100E38003708AF0006300310AC0DAD0DAE0DAF0D89
:100E4800FF3E031D1F2FAC09AD09AE09AF09AC0A5F
:100E58000319AD0A0319AE0A0319AF0A2C08A8072B
:100E68002D0803182D0F392F3A2FA9072E0803181C
:100E78002E0F3F2F402FAA072F0803182F0AAB0762
:100E88002B08A3002A08A2002908A1002808A0000E
:100E98003408B0003508B1003608B2003708B3008E
:100EA80006300310B00DB10DB20DB30DFF3E031D9A
:100EB800552F3308A7003208A6003108A5003008CE
:100EC800A4000A128A118B250A128A11831383122D
:100ED80003132108F801F8072008F701F707013084
:100EE8007802003003197702031C7B2F7C2FE42F34
:100EF8000030A800C030A900A830AA000030AB001C
:100F08003408AC003508AD003608AE003708AF002D
:100F180004300310AC0DAD0DAE0DAF0DFF3E031D3B
:100F28008D2FAC09AD09AE09AF09AC0A0319AD0A9A
:100F38000319AE0A0319AF0A2C08A8072D080318CD
:100F48002D0FA72FA82FA9072E0803182E0FAD2F96
:100F5800AE2FAA072F0803182F0AAB072B08A300E8
:100F68002A08A2002908A1002808A0003408B00017
:100F78003508B1003608B2003708B3000430031052
:100F8800B00DB10DB20DB30DFF3E031DC32F3308D5
:100F9800A7003208A6003108A5003008A4000A12EC
:100FA8008A118B250A128A118313831203132108CD
:100FB800F801F8072008F701F70783160313181537
:100FC800013078020030031977020318EC2FED2F57
:100FD800FF2F77088316031399001812831203133F
:100FE8009817831603138717071783120313181606
:080FF80083160313981608008C
:02400E00323F3F
:00000001FF
