:060000000A128A11552DC1
:100AAA00F901B80183010A128A11FF2E003083125C
:100ABA0003138C1A01300800831203138C1E662D4F
:100ACA00672D612D1A080800031000300318013041
:100ADA00F20083120313A71F732D742D822DA4090C
:100AEA00A509A609A709A40A0319A50A0319A60AAA
:100AFA000319A70AF2010314F20DA31F852D862DEF
:100B0A00952DA009A109A209A309A00A0319A10AFE
:100B1A000319A20A0319A30A0130F0007008F206A9
:100B2A000030F6000030F5000030F4000030F30029
:100B3A0027082604250424040319A42DA52DF32D22
:100B4A00F1010314F10DB62D0130F0000310A40DCC
:100B5A00A50DA60DA70DF00BAB2D0130F000700806
:100B6A00F107A71FB92DBA2DA92D0130F0000310E6
:100B7A00F30DF40DF50DF60DF00BBC2D270823022D
:100B8A00031DD12D26082202031DD12D250821027D
:100B9A00031DD12D24082002031CD42DD52DE42DAC
:100BAA002408A0022508031C250FA1022608031CFD
:100BBA00260FA2022708031C270FA3027314013071
:100BCA000310A70CA60CA50CA40CFF3E031DE52DD3
:100BDA000130F102031DF22DF32DBA2D7208031D07
:100BEA00F72D022EF309F409F509F609F30A031998
:100BFA00F40A0319F50A0319F60A7608A300750818
:100C0A00A2007408A1007308A00008000030831233
:100C1A000313A8000930A9003D30AA000030AB0038
:100C2A003408AC003508AD003608AE003708AF000E
:100C3A0006300310AC0DAD0DAE0DAF0DFF3E031D1A
:100C4A001E2EAC09AD09AE09AF09AC0A0319AD0AEB
:100C5A000319AE0A0319AF0A2C08A8072D080318AE
:100C6A002D0F382E392EA9072E0803182E0F3E2EC7
:100C7A003F2EAA072F0803182F0AAB072B08A30039
:100C8A002A08A2002908A1002808A0003408B000F8
:100C9A003508B1003608B2003708B3000630031031
:100CAA00B00DB10DB20DB30DFF3E031D542E330826
:100CBA00A7003208A6003108A5003008A4000A12CD
:100CCA008A1169250A128A118313831203132108D0
:100CDA00F801F8072008F701F70701307802003019
:100CEA0003197702031C7A2E7B2EE32E0030A8000C
:100CFA000930A9003D30AA000030AB003408AC002E
:100D0A003508AD003608AE003708AF0004300310CE
:100D1A00AC0DAD0DAE0DAF0DFF3E031D8C2EAC0913
:100D2A00AD09AE09AF09AC0A0319AD0A0319AE0A37
:100D3A000319AF0A2C08A8072D0803182D0FA62E91
:100D4A00A72EA9072E0803182E0FAC2EAD2EAA0720
:100D5A002F0803182F0AAB072B08A3002A08A200A2
:100D6A002908A1002808A0003408B0003508B100FD
:100D7A003608B2003708B30004300310B00DB10DC5
:100D8A00B20DB30DFF3E031DC22E3308A700320871
:100D9A00A6003108A5003008A4000A128A116925A4
:100DAA000A128A118313831203132108F801F80720
:100DBA002008F701F7078316031318150130780284
:100DCA000030031977020318EB2EEC2EFE2E77085B
:100DDA0083160313990018128312031398178316A4
:100DEA00031387170717831203131816831603139F
:100DFA0098160800FF30831603138700031000308B
:100E0A0003180130880003100030031801308600EF
:100E1A00003083120313B7000030B6001230B50059
:100E2A00C030B4000A128A110B260A128A110A1259
:100E3A008A115B250A128A11003A0319252F262FD7
:100E4A002C2F0A128A1161250A128A11F9007908CF
:100E5A00413A031D312F322F3C2F83120313861779
:100E6A00061386120612861106118610881379084F
:100E7A00423A031D412F422F4C2F8312031386132C
:100E8A00061786120612861106118610881379082B
:100E9A00433A031D512F522F5C2F831203138613DB
:100EAA00061386160612861106118610881379080B
:100EBA00443A031D612F622F6C2F8312031386138A
:100ECA0006138612061686110611861088137908EB
:100EDA00453A031D712F722F7C2F83120313861339
:100EEA0006138612061286150611861088137908CB
:100EFA00463A031D812F822F8C2F831203138613E8
:100F0A0006138612061286110615861088137908AA
:100F1A00473A031D912F922F9C2F83120313861396
:100F2A00061386120612861106118614881379088A
:100F3A00483A031DA12FA22FAC2F83120313861345
:100F4A00061386120612861106118610881779086A
:100F5A00493A031DB12FB22FBC2F831203138617F0
:100F6A000613861606128615061186148813790842
:100F7A004A3A031DC12FC22FCC2F831203138613A3
:100F8A00061786120616861106158610881779081E
:100F9A004B3A031DD12FD22FDC2F8312031386174E
:100FAA000617861206128615061586108813790802
:100FBA004C3A031DE12FE22FEC2F83120313861301
:100FCA0006138616061686110611861488177908DE
:100FDA004D3A031DF12FF22F1C2F83120313861390
:100FEA0006138612061286110611861088131C2F04
:060FFA000A128A11002812
:02400E00323F3F
:00000001FF
