:060000000A128A150E2908
:100010008312031386190D280E2822282930A200E6
:100020000030A3000A128A150B220A128A110A1242
:100030008A15F8200A128A1183120313861D2128BB
:1000400022281C2808000030BD000030BC002530EC
:10005000BB008030BA000A128A11B0210A128A113C
:100060001F3083160313850001308600803087001F
:10007000031000300318013088000310003003180B
:10008000013089000310003003180130831203137C
:100090008500031000300318013086000310003083
:1000A0000318013087000310003003180130880066
:1000B0000310003003180130890083160313011365
:1000C000831203138B170B168B10071401300A12BF
:1000D0008A1587250A128A1102300A128A15872585
:1000E0000A128A1106300A128A1587250A128A1105
:1000F0000C300A128A1587250A128A1138300A1222
:100100008A1587250A128A118030831603139F00EF
:100110000130831203139F0000300A128A15F22364
:100120000A128A1101300A128A15A3210A128A11B1
:100130000A128A11A4220A128A1176088312031362
:10014000B201B2077508B101B1070A30B30000303F
:10015000B400BC300A128A1549210A128A1183128E
:1001600003134D08B201B2074C08B101B1070A30C0
:10017000B3000030B400CC300A128A1549210A12AB
:100180008A110A128A157C220A128A110A128A1509
:10019000B5220A128A110A128A1108200A128A113B
:1001A00098280A128A110028831203133408AA001F
:1001B0003508AB003608AC0003102B0D2C0DAE003B
:1001C000AE08031DE428E528EC280030B400003018
:1001D000B5000030B600AF293708AA003808AB00D8
:1001E0003908AC0003102B0D2C0DB300B308031D10
:1001F000FA28FB2802290030B4000030B500003096
:10020000B600AF2933087B3EAA002A08AE0734089F
:10021000AA003508AB003608AC0010300310AC0C57
:10022000AB0CAA0CFF3E031D0E292A08B3003708A9
:10023000AA003808AB003908AC0010300310AC0C31
:10024000AB0CAA0CFF3E031D1E292A08AD002D0889
:10025000B3068030AA002A08B305B517B817FF30D7
:10026000B705FF30B8050030B9050030AF000030E9
:10027000B0000030B1000730B200341C40294129E1
:1002800051293708AF07380803110318380A031932
:100290004A29B007390803110318390A03195129EB
:1002A000B10701300310B60CB50CB40CFF3E031DB2
:1002B000522901300310B70DB80DB90DFF3E031DD3
:1002C0005A290130B202031D662967293D290930E8
:1002D000B200341C6C296D297D293708AF07380816
:1002E00003110318380A03197629B00739080311D6
:1002F0000318390A03197D29B10701300310B60C20
:10030000B50CB40CFF3E031D7E2901300310B10C67
:10031000B00CAF0CFF3E031D86290130B202031D55
:100320009229932969292F08A0003008A1003108DB
:10033000A2002E08AA002A08A3003308AB002B084D
:10034000A4000A128A1588240A128A1183138312C0
:1003500003132008B4002108B5002208B6000800E5
:10036000003083120313AE00C030AF00A830B000DD
:100370000030B1003A08B2003B08B3003C08B400BA
:100380003D08B50006300310B20DB30DB40DB50D28
:10039000FF3E031DC329B209B309B409B509B20A66
:1003A0000319B30A0319B40A0319B50A3208AE07D0
:1003B00033080318330FDD29DE29AF07340803188B
:1003C000340FE329E429B00735080318350AB107CB
:1003D0003108A9003008A8002F08A7002E08A600A1
:1003E0003A08B6003B08B7003C08B8003D08B90021
:1003F00006300310B60DB70DB80DB90DFF3E031D45
:10040000F9293908AD003808AC003708AB003608C8
:10041000AA000A128A15B3260A128A1183138312BC
:1004200003132708F201F2072608F101F107013052
:100430007202003003197102031C1F2A202A882A25
:100440000030AE00C030AF00A830B0000030B100C6
:100450003A08B2003B08B3003C08B4003D08B500C0
:1004600004300310B20DB30DB40DB50DFF3E031DE6
:10047000312AB209B309B409B509B20A0319B30A9A
:100480000319B40A0319B50A3208AE073308031872
:10049000330F4B2A4C2AAF0734080318340F512A64
:1004A000522AB00735080318350AB1073108A900E8
:1004B0003008A8002F08A7002E08A6003A08B600AA
:1004C0003B08B7003C08B8003D08B90004300310F1
:1004D000B60DB70DB80DB90DFF3E031D672A3908DB
:1004E000AD003808AC003708AB003608AA000A1285
:1004F0008A15B3260A128A1183138312031327085D
:10050000F201F2072608F101F1078316031318150B
:10051000013072020030031971020318902A912AE7
:10052000A32A710883160313990018128312031368
:1005300098178316031387170717831203131816C8
:1005400083160313981608004130831203139F008B
:100550000030A3000030A2000030A1006430A000F1
:100560000A128A1573210A128A11831203131F15A6
:100570001F19BB2ABC2AB82A831603131E0883122C
:100580000313C000C101C201C3014308DB004208DC
:10059000DA004108D9004008D8001E08C000C10197
:1005A0000830C2000310C00DC10DC20BD22A400892
:1005B000D4004108D5000030D51BFF30D600D7004D
:1005C00058085407C0000030031801305907C20111
:1005D0000318C20A5507C1000318C20A5A08420785
:1005E000C3010318C30A5607C2000318C30A5B08F5
:1005F00043075707C3004308F8004208F7004108C3
:10060000F6004008F50049309F000030A30000309C
:10061000A2000030A1006430A0000A128A157321E4
:100620000A128A11831203131F151F19182B192B75
:10063000152B831603131E0883120313C000C10178
:10064000C201C3014308CB004208CA004108C900E7
:100650004008C8001E08C000C1010830C2000310D5
:10066000C00DC10DC20B2F2B4008C4004108C500AE
:100670000030C51BFF30C600C70044084807C00053
:100680000030031801304507C2010318C20A4907A8
:10069000C1000318C20A46084207C3010318C30A6F
:1006A0004A07C2000318C30A470843074B07C300A1
:1006B0004308A9004208A8004108A7004008A60076
:1006C0000A128A15D5210A128A1183138312031381
:1006D0002608B4002708B5002808B6009A30B700ED
:1006E000F930B8004030B9000A128A11D4200A1239
:1006F0008A11831383120313340883160313DF0054
:1007000083120313350883160313E00083120313C7
:10071000360883160313E1000030E200F030E300F6
:100720004130E4000A128A11BF230A128A1183138E
:10073000831603135F08EB006008EC006108ED000E
:100740000A128A1555270A128A1183138316031376
:100750006E0883120313CF00831603136D088312F0
:100760000313CE00831603136C0883120313CD000A
:10077000831603136B0883120313CC00080083163F
:1007800003135F0883120313BA0083160313600870
:1007900083120313BB008316031361088312031330
:1007A000BC0003103B0D3C0D83160313DE006208F2
:1007B00083120313BA00831603136308831203130F
:1007C000BB0083160313640883120313BC000310D9
:1007D0003B0D3C0D83160313DD005E08031DF12B5A
:1007E000032C5D085E020318F62BF72B0C2C5E031E
:1007F000FF3A5D0783120313BA0019303A02031C53
:10080000022C032C0C2C831603136208DF006308F0
:10081000E0006408E100522D831603135D08031DF8
:10082000122C242C5E085D020318172C182C2D2C7A
:100830005D03FF3A5E0783120313BA0019303A02D0
:10084000031C232C242C2D2C831603135F08DF009C
:100850006008E0006108E100522D063083160313A2
:10086000DC00E11F342C352C362CDC17E41F392C2E
:100870003A2C3B2C5C17E017FF30DF05FF30E0051A
:100880000030E105E317FF30E205FF30E3050030FB
:10089000E4055D085E0203184E2C4F2C7F2C0130BE
:1008A0000310E20DE30DE40DFF3E031D502C01305B
:1008B000DD025D085E0603195E2C5F2C782C01308A
:1008C000DC025C080739031D662C672C4F2C782C42
:1008D00001300310E10CE00CDF0CFF3E031D692C1E
:1008E000013083120313BA003A0883160313DE079C
:1008F0005E085D06031D7D2C7E2C682CB42C5E08E2
:100900005D020318842C852CB42C01300310DF0DFC
:10091000E00DE10DFF3E031D862C0130DE025D0877
:100920005E060319942C952CAE2C0130DC025C0879
:100930000739031D9C2C9D2C852CAE2C01300310F7
:10094000E40CE30CE20CFF3E031D9F2C01308312EC
:100950000313BA003A0883160313DD075E085D0629
:10096000031DB32CB42C9E2CDC1FB72CB82CCE2C22
:10097000FF30DF06FF30E006FF30E1060130DF0721
:10098000003003110318013E0319C72CE0070030A3
:1009900003110318013E0319CE2CE1075C1FD12C73
:1009A000D22CE82CFF30E206FF30E306FF30E406ED
:1009B0000130E207003003110318013E0319E12C56
:1009C000E307003003110318013E0319E82CE40784
:1009D0000310003003180130DC005F08E2076008F4
:1009E00003110318600A0319F62CE30761080311C9
:1009F0000318610A0319FD2CE407E41F002D012DE3
:100A00001A2DFF30E206FF30E306FF30E406013026
:100A1000E207003003110318013E0319102DE3070C
:100A2000003003110318013E0319172DE407DC0100
:100A30000314DC0D620883120313A0008316031352
:100A4000630883120313A10083160313640883123F
:100A50000313A200831603135E0883120313BA0064
:100A60003A08A300831603135C0883120313BB0028
:100A70003B08A4000A128A1588240A128A118313DB
:100A800083120313200883160313DF00831203135A
:100A9000210883160313E000831203132208831630
:100AA0000313E10008000A30831203133102031C10
:100AB0005A2D5B2D9A2D3008A3002F08A2002E0876
:100AC000A1002D08A0005430A7000B30A600E43090
:100AD000A5000030A4000A128A1558230A128A11B0
:100AE0008313831203132308B0002208AF002108E8
:100AF000AE002008AD003008A8002F08A7002E087F
:100B0000A6002D08A5003B30AC009A30AB00CA30DF
:100B1000AA000030A9000A128A151F240A128A119D
:100B20008313831203132508303E0A128A151D26EB
:100B30000A128A110930831203133102031CA12DFA
:100B4000A22DE12D3008A3002F08A2002E08A1003D
:100B50002D08A0003B30A7009A30A600CA30A5009F
:100B60000030A4000A128A1558230A128A1183132E
:100B7000831203132308B0002208AF002108AE003F
:100B80002008AD003008A8002F08A7002E08A600F6
:100B90002D08A5000530AC00F530AB00E130AA000F
:100BA0000030A9000A128A151F240A128A11831321
:100BB000831203132508303E0A128A151D260A12D5
:100BC0008A110830831203133102031CE82DE92D2A
:100BD000282E3008A3002F08A2002E08A1002D08FF
:100BE000A0000530A700F530A600E130A5000030D8
:100BF000A4000A128A1558230A128A118313831239
:100C000003132308B0002208AF002108AE0020081B
:100C1000AD003008A8002F08A7002E08A6002D0858
:100C2000A5000030AC009830AB009630AA008030B0
:100C3000A9000A128A151F240A128A11831383122B
:100C400003132508303E0A128A151D260A128A113E
:100C50000730831203133102031C2F2E302E6F2E08
:100C60003008A3002F08A2002E08A1002D08A00024
:100C70000030A7009830A6009630A5008030A40070
:100C80000A128A1558230A128A1183138312031336
:100C90002308B0002208AF002108AE002008AD00F4
:100CA0003008A8002F08A7002E08A6002D08A500D0
:100CB0000030AC000F30AB004230AA004030A90039
:100CC0000A128A151F240A128A118313831203132E
:100CD0002508303E0A128A151D260A128A1106308E
:100CE000831203133102031C762E772EB62E3008A2
:100CF000A3002F08A2002E08A1002D08A00000309C
:100D0000A7000F30A6004230A5004030A4000A1210
:100D10008A1558230A128A11831383120313230896
:100D2000B0002208AF002108AE002008AD00300856
:100D3000A8002F08A7002E08A6002D08A500003047
:100D4000AC000130AB008630AA00A030A9000A1226
:100D50008A151F240A128A1183138312031325088C
:100D6000303E0A128A151D260A128A110530831296
:100D700003133102031CBD2EBE2EFD2E3008A3002E
:100D80002F08A2002E08A1002D08A0000030A70007
:100D90000130A6008630A500A030A4000A128A15F2
:100DA00058230A128A118313831203132308B000F5
:100DB0002208AF002108AE002008AD003008A800CE
:100DC0002F08A7002E08A6002D08A5000030AC00B3
:100DD0000030AB002730AA001030A9000A128A1593
:100DE0001F240A128A118313831203132508303E2D
:100DF0000A128A151D260A128A110430831203135F
:100E00003102031C042F052F442F3008A3002F08A4
:100E1000A2002E08A1002D08A0000030A70000307D
:100E2000A6002730A5001030A4000A128A15582306
:100E30000A128A118313831203132308B0002208B5
:100E4000AF002108AE002008AD003008A8002F0830
:100E5000A7002E08A6002D08A5000030AC00003029
:100E6000AB000330AA00E830A9000A128A151F243B
:100E70000A128A118313831203132508303E0A12C3
:100E80008A151D260A128A110330831203133102B8
:100E9000031C4B2F4C2F8B2F3008A3002F08A200D0
:100EA0002E08A1002D08A0000030A7000030A600E9
:100EB0000330A500E830A4000A128A1558230A124C
:100EC0008A118313831203132308B0002208AF0092
:100ED0002108AE002008AD003008A8002F08A700A8
:100EE0002E08A6002D08A5000030AC000030AB0095
:100EF0000030AA006430A9000A128A151F240A12C1
:100F00008A118313831203132508303E0A128A15AF
:100F10001D260A128A110230831203133102031CA8
:100F2000922F932FD22F3008A3002F08A2002E0853
:100F3000A1002D08A0000030A7000030A60000305E
:100F4000A5006430A4000A128A1558230A128A11D7
:100F50008313831203132308B0002208AF00210873
:100F6000AE002008AD003008A8002F08A7002E080A
:100F7000A6002D08A5000030AC000030AB0000300A
:100F8000AA000A30A9000A128A151F240A128A111F
:100F90008313831203132508303E0A128A151D2677
:100FA0000A128A11831203133108031DD82FFF2F51
:100FB0003008A3002F08A2002E08A1002D08A000D1
:100FC0000030A7000030A6000030A5000A30A400C1
:100FD0000A128A1558230A128A11831383120313E3
:100FE0002308B0002208AF002108AE002008AD00A1
:100FF0002D08303E0A128A151D260A128A11080091
:1011C80064008001840A0406031900340406E52833
:1011D800F00083160313981CF228F328ED287008F2
:1011E800831203139900080001300A128A15872513
:1011F8000A128A15003083120313A3000030A200DC
:101208000230A1005830A0000A128A1573210A1270
:101218008A150800F901F501F601F701F8018313B1
:101228004430840060300A128A15E4200A128A15B4
:10123800A0308400DC300A128A15E4200A128A15CC
:1012480083010A128A112328831203130617003018
:10125800A3000030A2000030A1003230A0000A1222
:101268008A1573210A128A15831203130613003094
:10127800A3000030A2000030A1003230A0000A1202
:101288008A1573210A128A15080083120313B00005
:10129800B21F4F29502960292D30F30030088400EF
:1012A8007308831380000130F3007308B007B10995
:1012B800B209B10A0319B20A3208AC01AC07310805
:1012C800AB01AB073408AE01AE073308AD01AD077B
:1012D80030080A128A1504250A128A150800831292
:1012E80003132308220421042004031D7C297D29DB
:1012F8007E29A2290130F0000030F1000030F20010
:101308000030F3007008A0027108031C710F8D29CA
:101318008E29A1027208031C720F93299429A20234
:101328007308031C730F99299A29A302230822041E
:1013380021042004031DA129A2297E290800831263
:101348000313AA00B8292A080A128A1509230A12BF
:101358008A150A128A151D260A128A150130831267
:101368000313A8002808AA072A08031DBC29C729AF
:101378002A080A128A1509230A128A150038031D39
:10138800C629C729A7290030A3000030A2000130D0
:10139800A1002C30A0000A128A1573210A128A159E
:1013A80008008E3083120313A500E72901300310CB
:1013B800A90CA80CA70CA60CFF3E031DDB290130C5
:1013C800F3007308A507FF302905031DEC29ED2953
:1013D800DA292608A0002708A1002808A200250865
:1013E800F3007308A3000310003003180130A400B1
:1013F8000A128A1588240A128A1583138312031382
:101408002008A6002108A7002208A800080000302C
:1014180083120313A0000030A1002E2A2308F20033
:101428002208F10020087107840072080318720A64
:101438000A128A1500230A128A150A128A15EC2044
:101448000A128A15013083120313A0070318A10A90
:101458000030A1072308F2002208F10020087107D4
:10146800840072080318720A0A128A1500230A12E5
:101478008A150038031D412A422A122A08008312BD
:1014880003132308220403194A2A4B2A7B2AF10151
:101498000314F10D5A2A01300310A20DA30DFF3ECB
:1014A800031D502A0130F0007008F107A31F5D2AC0
:1014B8005E2A4F2A23082102031D642A22082002DB
:1014C800031C672A682A6E2A2208A0022308031C24
:1014D800A103A10201300310A30CA20CFF3E031DBF
:1014E8006F2A0130F102031D7A2A7B2A5E2A08003E
:1014F800333083120313A2000030A3000A128A15A6
:101508000B220A128A15CC3083120313A2008030F2
:10151800A3000A128A150B220A128A152C300A1205
:101528008A15EC200A128A15463083120313A2008A
:101538000030A3000A128A150B220A128A15BC3041
:1015480083120313A2008030A3000A128A150B220B
:101558000A128A153B300A128A15EC200A128A15DB
:10156800080014300A128A15F2230A128A1541302B
:101578000A128A15A3210A128A1518300A128A1526
:10158800F2230A128A15780883120313B000770829
:10159800AF007608AE007508AD000330B20032081F
:1015A800B1000A128A1153250A128A151C300A1230
:1015B8008A15F2230A128A153C300A128A15A321C9
:1015C8000A128A1520300A128A15F2230A128A157D
:1015D800831203134F08B0004E08AF004D08AE0049
:1015E8004C08AD000430B2003208B1000A128A116A
:1015F80053250A128A150800FE00FE1F082B8313C4
:101608007E188317000808000408FE000B308A00C3
:101618007E088207003420342034203420345234A9
:101628004E3444342034443441345134203420344A
:1016380020342034003423343134203453344D34AE
:101648004F34443445343A3431343B340034233451
:101658003134203453344D344F34443445343A34DF
:1016680032343B340034233431342034523445345A
:101678005334453454343B34003423343134203427
:10168800533450344F3453343A34003450346F3474
:1016980073343A3400345334703464343A34003494
:1016A800533456343A34003483120313270826047B
:1016B800250424040319612B622BA62BF1010314C2
:1016C800F10D732B0130F0000310A40DA50DA60D2C
:1016D800A70DF00B682B0130F0007008F107A71F69
:1016E800762B772B662B27082302031D852B2608CC
:1016F8002202031D852B25082102031D852B2408A2
:101708002002031C882B892B972B2408A00225086C
:10171800031C250FA1022608031C260FA202270876
:10172800031C270FA30201300310A70CA60CA50C5D
:10173800A40CFF3E031D982B0130F102031DA52BBD
:10174800A62B772B0800003083120313A10000306A
:10175800A200260825040319B22BB32BEB2BA001FA
:101768000314A00DC22B01300310A50DA60DFF3EDA
:10177800031DB82B0130F0007008A007A61FC52B69
:10178800C62BB72B01300310A10DA20DFF3E031D80
:10179800C72B26082402031DD32B25082302031C6C
:1017A800D62BD72BDE2B2508A3022608031CA4035F
:1017B800A402211401300310A60CA50CFF3E031D42
:1017C800DF2B0130A002031DEA2BEB2BC62B2208CE
:1017D800A401A4072108A301A30708008312031387
:1017E800A700103027020318FA2BFB2B032C27081D
:1017F800803E0A128A1587250A128A150D2C270899
:10180800EC3EA7002708C03E0A128A1587250A124F
:101818008A15003083120313A3000030A2000030A1
:10182800A100C830A0000A128A1573210A128A156D
:021838000800A6
:10183E00003083120313A3000030A2000030A10079
:10184E000030A0002C082B042A0429040319302C84
:10185E00312C7F2CA4010314A40D422C0130F00076
:10186E000310A90DAA0DAB0DAC0DF00B372C0130EA
:10187E00F0007008A407AC1F452C462C352C013007
:10188E00F0000310A00DA10DA20DA30DF00B482C1E
:10189E002C082802031D5D2C2B082702031D5D2C2E
:1018AE002A082602031D5D2C29082502031C602C24
:1018BE00612C702C2908A5022A08031C2A0FA602E7
:1018CE002B08031C2B0FA7022C08031C2C0FA8029D
:1018DE00201401300310AC0CAB0CAA0CA90CFF3E6B
:1018EE00031D712C0130A402031D7E2C7F2C462C6F
:1018FE002308A8002208A7002108A6002008A5009A
:10190E000800831203132308031D8E2C952C220826
:10191E0021042004031D942C952CA82C0030A0002B
:10192E000030A1000030A200032D0130F00070083D
:10193E00A30701300310A20CA10CA00CFF3E031D47
:10194E00A12CFE302205031DAD2CAE2C9C2CCB2CD5
:10195E000130F0007008A3070130A007003003111A
:10196E000318013E0319BC2CA10700300311031804
:10197E00013E0319C32CA20701300310A20CA10CC7
:10198E00A00CFF3E031DC42CFF302205031DD02CDE
:10199E00D12CAF2CDC2C0130A30201300310A00D92
:1019AE00A10DA20DFF3E031DD52CA11FDF2CE02C97
:1019BE00D22C2318E32CE42CEA2CFF30A0057F3028
:1019CE00A105FF30A2050310A30C2308F000F101BE
:1019DE00F20110300310F00DF10DF20DFF3E031D5C
:1019EE00F12C7008A0047108A1047208A204240846
:1019FE00031D022D032DA217080083120313AA0044
:101A0E002C08A801A8072B08A701A7072808A401DE
:101A1E00A4072708A301A3072E08A601A6072D08D1
:101A2E00A501A5070A128A15A7230A128A15831380
:101A3E00831203132408A801A8072308A701A707E8
:101A4E000130F2007208AA0728082704031D302D62
:101A5E00312D0D2D03102A0884000030031801309B
:101A6E0080000130AA022C08A101A1072B08A001B9
:101A7E00A0072E08A301A3072D08A201A2070A1290
:101A8E008A1543220A128A15831383120313200820
:101A9E00A9002C08A401A4072B08A301A3072E0854
:101AAE00A601A6072D08A501A5070A128A15A723C8
:101ABE000A128A158313831203132408AC01AC0790
:101ACE002308AB01AB070A302902031C6F2D702DC2
:101ADE00742D0730F2007208A9073030F200720838
:101AEE00A9072908F2002A08840072088000013034
:101AFE00AA022C082B04031D852D862D3A2D0800D5
:101B0E0083120313A4008613031000300318013050
:101B1E00A5002408F400250A962D0310F40CFF3EB0
:101B2E00031D942D74080139A600E62D2608013AEE
:101B3E00031DA22DA32DA52D0814A62D08102608D1
:101B4E00013A031DAB2DAC2DAE2D8814AF2D881090
:101B5E002608013A031DB42DB52DB72D0815B82D45
:101B6E0008112608013A031DBD2DBE2DC02D881566
:101B7E00C12D88112608013A031DC62DC72DC92D6A
:101B8E000816CA2D08122608013A031DCF2DD02D96
:101B9E00D22D8816D32D88122608013A031DD82D72
:101BAE00D92DDB2D0817DC2D08132608013A031D4D
:101BBE00E12DE22DE42D8817002E8813002E250826
:101BCE00003A03199D2D013A0319A62D033A031964
:101BDE00AF2D013A0319B82D073A0319C12D013A59
:101BEE000319CA2D033A0319D32D013A0319DC2D1B
:101BFE00002E0130F4007408A50708302502031CDE
:101C0E00092E0A2E902D0030A3000030A2000030C5
:101C1E00A1003230A0000A128A1573210A128A1509
:101C2E000A128A1528210A128A1508008312031334
:101C3E00A50086170310003003180130A6002508F2
:101C4E00A400260A2C2E0310A40CFF3E031D2A2EE0
:101C5E0024080139A7007C2E2708013A031D382ECF
:101C6E00392E3B2E08143C2E08102708013A031D6E
:101C7E00412E422E442E8814452E88102708013AF4
:101C8E00031D4A2E4B2E4D2E08154E2E08112708D9
:101C9E00013A031D532E542E562E8815572E881199
:101CAE002708013A031D5C2E5D2E5F2E0816602E4E
:101CBE0008122708013A031D652E662E682E881617
:101CCE00692E88122708013A031D6E2E6F2E712E73
:101CDE000817722E08132708013A031D772E782E47
:101CEE007A2E8817962E8813962E2608003A0319F8
:101CFE00332E013A03193C2E033A0319452E013AAD
:101D0E0003194E2E073A0319572E013A0319602E66
:101D1E00033A0319692E013A0319722E962E0130D9
:101D2E00A4002408A60708302602031C9F2EA02E0E
:101D3E00262E0030A3000030A2000030A100323069
:101D4E00A0000A128A1573210A128A150A128A1520
:101D5E0028210A128A1508000310003003180130DA
:101D6E0083120313A100AD1FBD2EBE2ECC2EAA09C9
:101D7E00AB09AC09AD09AA0A0319AB0A0319AC0ADF
:101D8E000319AD0AA1010314A10DA91FCF2ED02E48
:101D9E00DF2EA609A709A809A909A60A0319A70AE9
:101DAE000319A80A0319A90A0130F0007008A10648
:101DBE000030A5000030A4000030A3000030A200C7
:101DCE002D082C042B042A040319EE2EEF2E3D2F82
:101DDE00A0010314A00D002F0130F0000310AA0D76
:101DEE00AB0DAC0DAD0DF00BF52E0130F000700803
:101DFE00A007AD1F032F042FF32E0130F0000310A8
:101E0E00A20DA30DA40DA50DF00B062F2D08290272
:101E1E00031D1B2F2C082802031D1B2F2B08270226
:101E2E00031D1B2F2A082602031C1E2F1F2F2E2FC9
:101E3E002A08A6022B08031C2B0FA7022C08031C32
:101E4E002C0FA8022D08031C2D0FA90222140130FD
:101E5E000310AD0CAC0CAB0CAA0CFF3E031D2F2FC8
:101E6E000130A002031D3C2F3D2F042F2108031D1E
:101E7E00412F4C2FA209A309A409A509A20A0319EF
:101E8E00A30A0319A40A0319A50A2508A900240800
:101E9E00A8002308A7002208A60008008316031333
:101EAE006B0883120313BD00831603136C08831291
:101EBE000313BE00831603136D0883120313BF00B2
:101ECE0003103E0D3F0D83160313EA00EA08031DAF
:101EDE00712F722F7B2F0030EE000030ED0000309E
:101EEE00EC000030EB00FF2F6B0883120313BD00D4
:101EFE00831603136C0883120313BE008316031399
:101F0E006D0883120313BF0017300310BF0CBE0CF5
:101F1E00BD0CFF3E031D8C2F3D0883160313E500F9
:101F2E00EC17FF30EB05FF30EC050030ED056B08CC
:101F3E00E6006C08E7006D08E800E9018E30EA0261
:101F4E00EA1FAA2FAB2FC92F6A08803A8F3E0318BB
:101F5E00B12FB22FB32F722F01300310E90CE80C02
:101F6E00E70CE60CFF3E031DB42F01308312031362
:101F7E00BD003D0883160313EA07031DC72FC82FA4
:101F8E00B32FE82F18306A02031CCE2FCF2FE32F6A
:101F9E00722F013083120313BD0003108316031337
:101FAE00E60DE70DE80DE90D83120313BD0BD42FDB
:101FBE00013083160313EA02EA08031DE72FE82F08
:101FCE00D02F6508031DEC2FF72FE609E709E80966
:101FDE00E909E60A0319E70A0319E80A0319E90AE7
:101FEE006908EE006808ED006708EC006608EB0073
:021FFE000800D9
:02400E00323F3F
:00000001FF
