:020000040000FA
:08000000803102288731FD2F39
:1009140016302100970008007030210099009801DA
:1009240022009601080084319F24843184318E246E
:10093400843184318A2484310800220090018F019B
:100944008C018D018E010F3021009000FF308C004E
:10095400FF308D00FF308E00FF308F00FF3023000A
:100964008F003F308D00073090003F308C00240012
:1009740090018D012100951722009D01080020009F
:1009840010100032F30110307302031CCA2CCB2C5C
:10099400CD2CEA2CEA2CF11FD02CD12CD42C200005
:1009A4001015D62C200010110032200090100032B7
:1009B400200090147035F000710DF1000130F20048
:1009C4007208F30710307302031CE92CEA2CCD2CB7
:1009D4002000101100322000101400320800200002
:1009E4003B08F7003A08F6003908F5003808F40027
:1009F4003D30F3007430F2001F30F1002130F0007C
:100A040086311E26843173082000B0007208AF00BE
:100A14007108AE007008AD0085318925843120004D
:100A24003008CC002F08CB002E08CA002D08C900BE
:100A3400FF304905C7003F304A05C8004817490838
:100A4400BC004A08BD004B08BE004C08BF000E3075
:100A5400C000BF37BE0CBD0CBC0CC00B2B2D3D0819
:100A6400CE003C08CD00FF304D05CD003F304E0593
:100A7400CE004E17080084319524853121001010D2
:100A8400901010112000101490140030C500213073
:100A9400C6000030C3002030C4000030C100C030A4
:100AA400C2004630BB00A430BA001030B900003098
:100AB400B8008431F124853120004608F10045084E
:100AC400F0008431C124853120004E08F1004D0826
:100AD400F0008431C124853120004808F100470822
:100AE400F0008431C124853120004208F10041081E
:100AF400F0008431C124853120004408F10043080A
:100B0400F0008431C1248531862D803102282000F3
:100B14002D08B1002E08B2002F08B3003008B4002D
:100B24000310330D340DB5003508B7003708031D25
:100B34009C2D9D2DA72D0030B0000030AF0000305B
:100B4400AE000030AD001D2E1D2E2D08B1002E0864
:100B5400B2002F08B3003008B4001F30B436B30C11
:100B6400B20CB10C890BB02D3108B5003508B600B4
:100B7400AF17FF30AD05FF30AE05FF30AF050030D5
:100B8400B0059630B702B71FC82DC92DEC2D370814
:100B9400803A973E0318CF2DD02DDB2D0030B000C6
:100BA4000030AF000030AE000030AD001D2E1D2E11
:100BB400DB2D0130B036AF0CAE0CAD0C890BDC2D47
:100BC4000130B1003108B707031DE92DEA2DDB2DF3
:100BD4000D2E0D2E20303702031CF12DF22D062E82
:100BE4000030B0000030AF000030AE000030AD0087
:100BF4001D2E1D2E062E0130AD35AE0DAF0DB00DE0
:100C0400890BFE2D0130B7023708031D0A2E0B2E67
:100C1400FD2D0D2E0D2E36080319112E122E1D2E0C
:100C2400AD09AE09AF09B009AD0A0319AE0A03193B
:100C3400AF0A0319B00A080077088039F800780869
:100C44002000A4007735F8007808AB00F61F2B2E9F
:100C54002C2E2E2E2B142E2E2B080319322E332E2F
:100C6400442E2B0A031D372E382E412E0030F70058
:100C74000030F6000030F5000030F400412EF61785
:100C8400F7014D2E0030F7000030F6000030F5007B
:100C94000030F4004D2E73088039F8007808A4065B
:100CA4007335F8007808AC00F21F592E5A2E5C2ECA
:100CB4002C145C2E2C080319602E612E722E2C0A23
:100CC400031D652E662E6F2E0030F3000030F200F7
:100CD4000030F1000030F0006F2EF217F3017A2E8D
:100CE4000030F3000030F2000030F1000030F0007A
:100CF4007308720471047004031D812E822E9C2ECD
:100D04000030F7000030F6000030F5000030F40049
:100D14008030F6047F30F7042408F8007808F704DC
:100D24007708F3007608F2007508F1007408F00003
:100D3400FC2FFC2F2B08031DA02EA12EB32E003058
:100D4400F7000030F6000030F5000030F4007708BA
:100D5400F3007608F2007508F1007408F000FC2F27
:100D6400FC2F2C08F800F901F809F909F80A03190D
:100D7400F90A2B087807FA0079080318790AFB00A6
:100D84007A087F3EA50000307B3DA6007708A300CB
:100D94007608A2007508A1007408A0000030F700CE
:100DA4000030F6000030F5000030F4000030AA00F6
:100DB4000030A9000030A8000030A700AC01242FA7
:100DC4002C080319E62EE72E032F0130A035A10DC0
:100DD400A20DA30D890BE82E0130F435F50DF60DA7
:100DE400F70D890BEF2EAA1FF82EF92EFB2E741483
:100DF400FB2E0130A735A80DA90DAA0D890BFC2ED9
:100E0400032F73082302031D112F72082202031DEE
:100E1400112F71082102031D112F70082002031CD9
:100E2400142F152F1F2F2A177008A0027108A13B39
:100E34007208A23B7308A33B1F2F0130F800780807
:100E4400AC07242F1A302C02031C292F2A2FE22E40
:100E54002B2F23082204210420040319322F332FBB
:100E64004F2F27144F2F4F2F0130F435F50DF60D6A
:100E7400F70D890B372FAA1F402F412F432F7414CE
:100E8400432F0130A735A80DA90DAA0D890B442FB6
:100E9400FF30A507FF30A63D4F2FF61F522F532FCB
:100EA400362F542FAC01AA1F582F592F792FFF30FA
:100EB4002705F800FF302805F900FF302905FA005E
:100EC4007F302A05FB007B087A047904780403192F
:100ED4006C2F6D2F702FAC01AC0A792F741C732FFB
:100EE400742F792FAC01AC0A792F792F792F2C0824
:100EF40003197D2F7E2FA82F0130F4070030F53D14
:100F04000030F63D0030F73D771C892F8A2FA82F3B
:100F14007408F8007508F9007608FA007708FB00F1
:100F24000130FC00FB37FA0CF90CF80CFC0B942F85
:100F34007B08F7007A08F6007908F5007808F400D1
:100F44000130A5070030A63DA82FA82F2608803A17
:100F5400F80080307802031DB12FFF302502031CF6
:100F6400B42FB52FC22FFF302000A5000030A600FB
:100F74000030F7000030F6000030F5000030F400D7
:100F840020002608803AF80080307802031DCC2F18
:100F9400013025020318CF2FD02FDC2F2000A5010C
:100FA400A6010030F7000030F6000030F5000030F4
:100FB400F400A40120002508F8007808AB002B1CDD
:100FC400E42FE52FE72FF617EB2F7F30F800780892
:100FD400F6052B36F8007808F7002408F80078089E
:100FE400F7047708F3007608F2007508F100740836
:0C0FF400F000FC2F0800200085313D2D8E
:020000040001F9
:04000E00E4FFFFFE0E
:00000001FF
