:020000040000FA
:060000000A128A11FC2F18
:100F5E0083160313871107128712831203130712C6
:100F6E0087168715A630F400F40BBB2F0000203037
:100F7E00F0000030F1000A128A11C8270A128A11F5
:100F8E00C72F831203138712CC2FCD2F0000F3012E
:100F9E00F01ED52F831203130716D82F83120313B7
:100FAE000712D92FDA2F0000831203138711DF2FB8
:100FBE00E02F00008312031387150310700DF0004D
:100FCE00710DF1000130F2007208F3070630730262
:100FDE00031CCF2F0712F32FF42F000083120313DD
:100FEE008716F92FFA2F0000080083010A128A11C2
:020FFE00AF2F13
:04400E00F2E3FFFFDB
:00000001FF
