:020000040000FA
:040000008031BB2868
:1000060008007E1480318B1C09280A28B12820009C
:100016000E1E0E280F2860282300B801B901BA0168
:10002600BB01292801302300BA070030BB3D203030
:100036003A064E3003193B06031D22282328292899
:100046000130B8070030B93DBA01BB0120000D18D8
:100056002D282E28152800302300390202300319D6
:1000660038020318372838284C2822006708803AB7
:10007600F00080307002031D4228643066020318C7
:1000860045284628B02801302200E6070030E73D23
:10009600B02822006708803AF00080307002031D05
:1000A600562864306602031859285A28B0280530A5
:1000B6002200E6070030E73DB0282300B801B90169
:1000C600BA01BB017A2801302300BA070030BB3DD4
:1000D60020303A064E3003193B06031D7328742858
:1000E6007A280130B8070030B93DBA01BB012000BB
:1000F6000D187E287F28662800302300390202303A
:10010600031938020318882889289D2822006708C1
:10011600803AF00080307002031D93280130660299
:10012600031C96289728B028FF302200E607FF30E8
:10013600E73DB02822006708803AF0008030700260
:10014600031DA72801306602031CAA28AB28B02885
:10015600FB302200E607FF30E73D8B102000111D23
:10016600B528B628B9289601970111117E10090005
:100176008031BD28FC0158308400013085001830DC
:10018600A031D5208031A030840001308500283090
:10019600A031D520803120308400023085005030D7
:1001A600A031D52080317E102000A631D12E21002D
:1001B600CB00CC01CD012B08E1002A08E00029087C
:1001C600DF002808DE0061082000C3002100600867
:1001D6002000C20021005F082000C10021005E0847
:1001E6002000C0000030C7000030C6000030C50047
:1001F6000030C4009931892180310318032904296C
:100206001D2901302100CC000030CD006108F4002A
:100216006008F3005F08F2005E08F1008731F527F9
:10022600803174082100E1007308E0007208DF00E5
:100236007108DE002100E401E501230037082100F2
:10024600D200230036082100D1004C084D04031DBE
:100256002D292E2933292200621D322933295129BD
:1002660021004C084D04031D39293A293F292B301A
:10027600B5000030B60043292D30B5000030B60079
:100286003508AD002D082400A00001302100E40748
:100296000030E53DFF30D107FF30D23D2100610837
:1002A600F4006008F3005F08F2005E08F10099317F
:1002B6000A21803171037204031D62296329B5295D
:1002C60021002C08BF3EAD00FF3003180030AE0001
:1002D60000302E021A3003192D02031C73297529CA
:1002E600013076290030AF00B0012F08B700300882
:1002F600B800370838040319812982298C294F3020
:10030600F100A830F2006408203EA2310C228031B0
:1003160095295730F100A830F2006408203EA2313A
:100326000C228031FD302100D107FF30D23D203034
:10033600AD002D082000A700210052082000A900CA
:10034600210051082000A80021004B08A531BE2538
:100356008031200028082100A9002000270821005C
:10036600A800BE2F21006108F4006008F3005F08B2
:10037600F2005E08F10099310A2180317108720499
:10038600031DC629C729192A21002C08BF3EAD0026
:10039600FF3003180030AE0000302E021A30031969
:1003A6002D02031CD729D9290130DA290030AF00E4
:1003B600B0012F08B9003008BA0039083A04031909
:1003C600E529E629F0295330F100A830F200640847
:1003D600203EA2310C228031F9295B30F100A83091
:1003E600F2006408203EA2310C228031FD3021004B
:1003F600D107FF30D23D2030AD002D082000A700E8
:10040600210052082000A900210051082000A80060
:1004160021004B08A531BE25803120002808210087
:10042600A900200027082100A800BE2F3F30210088
:10043600E9008030E8000030E7000030E600E20125
:10044600E3016108F4006008F3005F08F2005E084B
:10045600F1000030F8000030F7000030F600003000
:10046600F500A331CF23803103183A2A3B2AFF2A0D
:100476006C2A41302000A9002030A8000030A700D7
:100486000030A600210069082000AD0021006808A0
:100496002000AC00210067082000AB0021006608A0
:1004A6002000AA009531A9258031200029082100C5
:1004B600E900200028082100E80020002708210084
:1004C600E700200026082100E6000130E2070030A0
:1004D600E33D210061082000C300210060082000E0
:1004E600C20021005F082000C10021005E08200034
:1004F600C0004130A9002030A8000030A70000301D
:10050600A600210069082000AD002100680820002F
:10051600AC00210067082000AB002100660820001F
:10052600AA009531A925803120002908C70028088E
:10053600C6002708C5002608C400993189218031E4
:100546000318A62AA72A3C2AD82A41302000C3002D
:100556002030C2000030C1000030C0002100690810
:100566002000C700210068082000C6002100670897
:100576002000C500210066082000C400883116202E
:100586008031200043082100E900200042082100B4
:10059600E800200041082100E70020004008210073
:1005A600E600FF30E207FF30E33D2100610820004E
:1005B600C300210060082000C20021005F0820005F
:1005C600C10021005E082000C0002100690820004B
:1005D600C700210068082000C60021006708200027
:1005E600C500210066082000C400993189218031A8
:1005F600031CFE2AFF2AA82A21002C08AD00AE0102
:100606002D08F7002E08F800A23150228031770815
:100616002100AF002F08D3005308AD002D08D000ED
:1006260067305306031D182B192B422B2200600836
:100636006104031D1F2B202B242B0130E00000300A
:10064600E1006108803A2100AD0080302D02031DD3
:100656002F2B0130220060020318322B332B392B4B
:1006660006302100CE000030CF00482B2200610862
:100676002100CF00220060082100CE00482B220076
:10068600E11B462B472B332B392B67305306031DB3
:100696004D2B4E2B7B2B6308803AAD007F302D020D
:1006A600031D572BFC306202031C5A2B5B2B762B47
:1006B60021004E08FF3EAD00FF304F3DAE002E0834
:1006C600803AAF006308803A2F02031D6C2B620844
:1006D6002D02031C6F2B702B762B66302100AD008C
:1006E6002D08D0007B2B65302100AD002D08D000F1
:1006F6004F08C6004E08C50067305306031D842BFD
:10070600852B8F2B66305006031D8A2B8B2B932B44
:10071600E31F8E2B8F2B932B0130C5070030C63D70
:1007260066305006031D982B992BB12BE31F9C2B8B
:100736009D2BA72B3F30E9008030E8000030E70012
:100746000030E600E201E301673053060319AC2BE3
:10075600AD2BB12B6208C5076308C63DDC01DD0180
:100766006108D7006008D6005F08D5005E08D4008F
:100776006908B4006808B3006708B2006608B100EB
:10078600892C210069082000C30021006808200088
:10079600C200210067082000C10021006608200071
:1007A600C000210057082000C7002100560820007D
:1007B600C600210055082000C5002100540820006D
:1007C600C40088311620803120004308DD0042082D
:1007D600DC004108DB004008DA009C31EB24803164
:1007E60020005D082100DB0020005C082100DA0003
:1007F60020005B082100D90020005A082100D800FB
:100806005B08F4005A08F3005908F2005808F10092
:1008160098319620803172082100CA007108C900FB
:100826005B082000AD0021005A082000AC00210022
:1008360059082000AB00210058082000AA0021001A
:1008460069082000A900210068082000A8002100EE
:1008560067082000A700210066082000A600953141
:10086600A9258031200029082100A300200028089E
:100876002100A200200027082100A1002000260850
:100886002100A0005708A7005608A6005508A50095
:100896005408A4008731BF27803121002308D700E0
:1008A6002208D6002108D5002008D40041302000B7
:1008B600C3002030C2000030C1000030C00021005B
:1008C60069082000C700210068082000C600210032
:1008D60067082000C500210066082000C400883192
:1008E60016208031200043082100E900200042083C
:1008F6002100E800200041082100E7002000400810
:100906002100E6000130DC070030DD3D5D08803A5D
:10091600AD004608803A2D02031D932C45085C0263
:10092600031C962C972CC42B40302000A900A03025
:10093600A8000030A7000030A600210069082000AA
:10094600AD00210068082000AC00210067082000E7
:10095600AB00210066082000AA009531A925803148
:10096600200029082100DB00200028082100DA00E9
:10097600200027082100D900200026082100D800E1
:1009860057082000C300210056082000C20021009D
:1009960055082000C100210054082000C000210095
:1009A6005B082000C70021005A082000C60021006D
:1009B60059082000C500210058082000C4009931BC
:1009C600892180310318E82CE92CF32C0030210012
:1009D600DB000030DA000030D9000030D800182DD6
:1009E60021005708F4005608F3005508F200540891
:1009F600F1005B08F8005A08F7005908F600580895
:100A0600F500A331CF238031031C0A2D0B2D182DA1
:100A1600210049180F2D102D182D0030DB00003055
:100A2600DA000030D9000030D80021005B08200031
:100A3600DD0021005A082000DC00210059082000B2
:100A4600DB00210058082000DA00210061082000A0
:100A5600E100210060082000E00021005F0820007E
:100A6600DF0021005E082000DE0093317123803113
:100A760020005D082100D70020005C082100D60078
:100A860020005B082100D50020005A082100D40070
:100A96003408E9003308E8003208E7003108E600C8
:100AA600653050060319582D592D5E2D6308C80070
:100AB6006208C700602DC701C801C301C401C10196
:100AC600C201DC01DD01992E210069082000C30066
:100AD600210068082000C200210067082000C1002C
:100AE600210066082000C000210057082000C7002A
:100AF600210056082000C600210055082000C50028
:100B0600210054082000C4008831162080312000BE
:100B16004308DD004208DC004108DB004008DA003B
:100B26009C31EB24803120005D082100DB00200091
:100B36005C082100DA0020005B082100D9002000B3
:100B46005A082100D8005B08F4005A08F300590837
:100B5600F2005808F1009831962080317208210081
:100B6600CA007108C9002200621ABA2DBB2DD12D08
:100B7600210049084A04031DC12DC22DD12D67301D
:100B86005306031DC72DC82DD12DC81FCB2DCC2D27
:100B9600D12D0130C1070030C23D1F2E2100430870
:100BA6004404031DD72DD82D072EC81FDB2DDC2DA1
:100BB600072E2E30AD006408203E860002308700E6
:100BC6002D0881000130E4070030E53DFF30D107F4
:100BD600FF30D23D0130C3000030C400072E303054
:100BE600AD006408203E8600023087002D08810093
:100BF6000130E4070030E53DFF30D107FF30D23D3C
:100C0600FF30C107FF30C23D41084204031D0C2ED0
:100C16000D2EF22D4908303EAD006408203E8600B8
:100C2600023087002D0881000130E4070030E53DE1
:100C3600FF30D107FF30D23D5B082000AD00210018
:100C46005A082000AC00210059082000AB00210002
:100C560058082000AA00210069082000A9002100E8
:100C660068082000A800210067082000A7002100CE
:100C760066082000A6009531A925803120002908A4
:100C86002100A300200028082100A2002000270838
:100C96002100A100200026082100A0005708A70077
:100CA6005608A6005508A5005408A4008731BF279A
:100CB600803121002308D7002208D6002108D5005C
:100CC6002008D40041302000C3002030C20000308C
:100CD600C1000030C000210069082000C7002100C3
:100CE60068082000C600210067082000C500210012
:100CF60066082000C4008831162080312000430891
:100D06002100E900200042082100E80020004108F7
:100D16002100E700200040082100E600FF30C70759
:100D2600FF30C83D0130DC070030DD3D5D08803A0C
:100D3600AD004608803A2D02031DA32E45085C022D
:100D46000318A62EA72EB52E21006508803AAD0001
:100D560080302D02031DB12E4B306402031CB42ECD
:100D6600B52E672D210043084404031DBB2EBC2E5F
:100D7600CF2E2200621EC02EC12ECF2E2E30210075
:100D8600AD006408203E8600023087002D088100F1
:100D96000130E4070030E53D21006408203E86006E
:100DA60002308700810165305006031DDB2EDC2EE4
:100DB600A32F4F30DC000030DD005C08203E8600AB
:100DC600023087008101CC01CD01E31FEB2EEC2E12
:100DD600F52E0130CC000030CD00E209E309E20A2D
:100DE6000319E30A0230CE000030CF002D2FFF306A
:100DF6002100DC07FF30DD3D0A30F1000030F20053
:100E06006308F4006208F300A431BD248031710840
:100E1600303E2100AD005C08203E8600023087008F
:100E26002D0881000A30F1000030F2006308F4005A
:100E36006208F300A6317226803172082100E300B1
:100E46007108E200FF30CE07FF30CF3DFF30D107FB
:100E5600FF30D23D62086304031D322F332FFA2E72
:100E66004F08803AAD0080302D02031D3C2F013023
:100E76004E0203183F2F402FFA2EFF302100DC07C9
:100E8600FF30DD3D4C084D04031D4A2F4B2F502FDC
:100E96002B30BB000030BC00542F2D30BB0000307F
:100EA600BC003B08AD005C08203E8600023087008F
:100EB6002D088100FF30D107FF30D23DFF30DC071F
:100EC600FF30DD3D2C08BF3EAD00FF30031800307B
:100ED600AE0000302E021A3003192D02031C742FA7
:100EE600762F0130772F0030AF00B0012F08BF00FA
:100EF6003008C0003F084004031D822F832F882F2F
:100F06006530BD000030BE008C2F4530BD0000307E
:100F1600BE003D08AD005C08203E8600023087001A
:100F26002D088100FF30D107FF30D23D5C08203EFE
:100F3600F1000230F2006408203EA2310C2280311A
:100F460020302100AD002D082000A7002100520806
:100F56002000A900210051082000A80021004B080C
:100F6600A531BE258031200028082100A9002000D7
:100F760027082100A800080080302100A3062708C2
:100F86002000DD00210026082000DC0021002508C5
:100F96002000DB00210024082000DA0021002308BD
:100FA6002000E100210022082000E00021002108A5
:100FB6002000DF00210020082000DE00933171238D
:100FC600873120005D082100A30020005C08210075
:100FD600A20020005B082100A10020005A08210081
:100FE600A000080074087304720471040319FC2F2E
:0A0FF600FD2FFF2F8030F4060800E5
:101002006A302200BD00A830BE004E08C0004D0864
:10101200BF00BE30983101208831BE30F40001306B
:10102200F500A131AF21883108002000470880393E
:10103200C8004808D1004735C8004808D800C61F74
:1010420023282428252858145808031929282A282F
:101052003A28580A031D2E282F2837280030C700A7
:101062000030C6000030C5000030C400C617C701FA
:1010720042280030C7000030C6000030C5000030F2
:10108200C40043088039C8004808D1064335C80067
:101092004808D900C21F4E284F2850285914590811
:1010A2000319542855286528590A031D59285A2816
:1010B20062280030C3000030C2000030C10000309E
:1010C200C000C217C3016D280030C3000030C20047
:1010D2000030C1000030C000430842044104400413
:1010E200031D742875288E280030C7000030C60002
:1010F2000030C5000030C4008030C6047F30C70411
:101102005108C8004808C7044708C3004608C2007F
:101112004508C1004408C000C9295808031D922887
:1011220093289C280030C3000030C2000030C10068
:101132000030C000C9295808C800C9014908CB00BD
:1011420059084802CA00031CCB034A087F3ED2005A
:1011520000304B3DD3004708D0004608CF00450879
:10116200CE004408CD000030C7000030C600003079
:10117200C5000030C4000030D7000030D600003077
:10118200D5000030D400D901042959080319CA280E
:10119200CB28E5280130CD35CE0DCF0DD00D890BF2
:1011A200CC280130C435C50DC60DC70D890BD32817
:1011B200D71FDC28DD28DE2844140130D435D50DB4
:1011C200D60DD70D890BDF2843085002031DF328E3
:1011D20042084F02031DF32841084E02031DF32863
:1011E20040084D02031CF628F7280029571740082B
:1011F200CD024108CE3B4208CF3B4308D03B0130F1
:10120200C8004808D9071A305902031C09290A29BB
:10121200C62850084F044E044D04031911291229FF
:101222002B2954142B290130C435C50DC60DC70D09
:10123200890B1529D71F1E291F2920294414013083
:10124200D435D50DD60DD70D890B2129FF30D20704
:10125200FF30D33DC61F2E292F291429D901D71FAC
:10126200332934295029FF305405C800FF30550571
:10127200C900FF305605CA007F305705CB004B0826
:101282004A04490448040319472948294B29D9012A
:10129200D90A5029441C4E294F2950294829590856
:1012A2000319542955297D290130C4070030C53D51
:1012B2000030C63D0030C73D471C602961297D29A9
:1012C2004408C8004508C9004608CA004708CB00C0
:1012D2000130CC00CB37CA0CC90CC80CCC0B6B2923
:1012E2004B08C7004A08C6004908C5004808C400A0
:1012F2000130D2070030D33D5308803AC800803015
:101302004802031D8629FF305202031C89298A29BB
:101312009729FF302000D2000030D3000030C700F0
:101322000030C6000030C5000030C4002000530861
:10133200803AC80080304802031DA12901305202C0
:101342000318A429A529B1292000D201D301003014
:10135200C7000030C6000030C5000030C400D10113
:1013620020005208C8004808D800581CB929BA29D8
:10137200BC29C617C0297F30C8004808C6055836A0
:10138200C8004808C7005108C8004808C704852893
:1013920008002200B40020006E0886000130870099
:1013A200403F2100EA00413FEB006A0884006B08DD
:1013B20085001200253A031DDF29E029B82C200000
:1013C2006E08860001308700013081074131031821
:1013D200810A2300B601B7012200E201E301FF30D6
:1013E200E000FF30E10020006E0886000130870037
:1013F200403F2100EA00413FEB006A0884006B088D
:10140200850012002E3A031D072A082A8D2A22007F
:10141200E001E10120006E08860001308700013002
:10142200810741310318810A6E0886000130870066
:10143200403F2100EA00413FEB006A0884006B084C
:10144200850012002A3A031D272A282A422A200050
:101452006E08860001308700013081074131031890
:10146200810A6F088600013087000108840001307C
:10147200850002308107003F2200E000013FE100C9
:101482008D2A20006E08860001308700403FF70059
:10149200413FF8009B315223893178082200E10054
:1014A2007708E0005E2A20006E088600013087007F
:1014B2000130810741310318810A20006E0886003D
:1014C20001308700403F2100EA00413FEB006A08FB
:1014D20084006B0885000008D03EEC00FF30031842
:1014E2000030ED0000306D020A3003196C02031C5B
:1014F2007B2A7D2A01307E2A0030EE00EF016E0841
:101502002200A80021006F082200A900280829044F
:10151200031D8C2A8D2A542A20006E088600013071
:101522008700403F2100EA00413FEB006A08840047
:101532006B0885000008EC00ED016C08F7006D08EF
:10154200F800A2315022893177082100EE006E089E
:101552002200AC002C080319AF2AB02AF72A200077
:101562006E08860001308700403F2100EA00413FBB
:10157200EB0001306A0784006B0803186B0A8500D0
:101582000008EC00ED016C08F7006D08F800A231CC
:101592005022893177082100EE006E082200AD004A
:1015A2002D080319D52AD62AF72A20006E088600AC
:1015B20001308700403F2100EA00413FEB0002304A
:1015C2006A0784006B0803186B0A85000008EC00A8
:1015D200ED016C08F7006D08F800A2315022893144
:1015E20077082100EE006E082200AE0020006E088F
:1015F200860001308700403F2100EA00413FEB00B6
:101602006A0884006B0885001200643A03190A2BE9
:101612000B2B1F2B20006E08860001308700403FF5
:101622002100EA00413FEB006A0884006B08850054
:101632001200693A031D1E2B1F2B722B20006E080D
:101642008600013087000130810741310318810A89
:101652006F08860001308700010884000130850090
:1016620002308107003F2100EA00013FEB006A08D7
:101672002200A00021006B082200A100890D893BF5
:101682008909A200A300A400A500A600A7002008C3
:101692002000B000220021082000B1002200220810
:1016A2002000B200220023082000B30022002408F8
:1016B2002000B400220025082000B50022002608E0
:1016C2002000B600220027082000B70022003408BC
:1016D20090316E20893120003108EF003008EE0091
:1016E200E12C663022002C06031D782B792BCC2BA3
:1016F20020006E08860001308700403F2100EA008A
:10170200413FEB006A0884006B0885000008EC008A
:101712006C082200B30020006E08860001308700AA
:101722000130810741310318810A6F0886000130B8
:101732008700010884000130850004308107003FE2
:101742002200AF00013FB000023FB100033FB200F0
:1017520032082100AB00220031082100AA00220039
:1017620030082100A90022002F082100A800220031
:1017720033082100EA006A08AC00220034088031F4
:10178200DA208931210029082000EF0021002808F1
:101792002000EE00E12C6730F100A830F2000230A8
:1017A200F3000030F4002C30A6311726893171087D
:1017B2007204031DDD2BDE2B7A2C20006E088600BE
:1017C20001308700403F2100EA00413FEB00013039
:1017D2006A0784006B0803186B0A85000008EC0096
:1017E2006C082200B30020006E08860001308700DA
:1017F200403F2100EA00413FEB006A0884006B0889
:1018020085000008BF3EEC00FF3003180030ED00F9
:1018120000306D021A3003196C02031C112C132CB8
:101822000130142C0030EE00EF016E082200AA00F5
:1018320021006F082200AB002A082B040319222C76
:10184200232C382C20006F08860001308700010805
:1018520084000130850004308107003F2200AF0080
:10186200013FB000023FB100033FB2004C2C200008
:101872006F0886000130870001088400013085006E
:1018820004308107003F2200AF00013FB000023F59
:10189200B100033FB20020006E08860001308700CD
:1018A2000230810741310318810A220032082100E7
:1018B200AB00220031082100AA00220030082100DA
:1018C200A90022002F082100A800220033082100CD
:1018D200EA006A08AC00220034088031DA2089313B
:1018E200210029082000EF00210028082000EE0036
:1018F200E12C20006E08860001308700403F210065
:10190200EA00413FEB006A0884006B088500120080
:10191200253A031D8D2C8E2CAB2C20006E088600E0
:10192200013087000130810741310318810A2530D7
:10193200F1000030F200220034082100EA006A08B7
:10194200F300A5311025893101302000EE0000306E
:10195200EF00E12C20006E08860001308700013084
:10196200810741310318810AEE01EF01E12C2000C9
:101972006E08860001308700403F2100EA00413FA7
:10198200EB006A0884006B0885000008EC00ED019A
:101992006C08F1006D08F200220034082100EE000C
:1019A2006E08F300A5311025893120006E088600EB
:1019B200013087000130810741310318810AA52CCB
:1019C20008002200D300E92F23004F082100A300C2
:1019D20023004E082100A20023004D082100A1008F
:1019E20023004C082100A00022005B082100A70070
:1019F20022005A082100A600220059082100A50051
:101A0200220058082100A4008731BF278C31210011
:101A12002308AB002208AA002108A9002008A80078
:101A2200A23176228C3121002B082300AF00210045
:101A32002A082300AE00210029082300AD0021005E
:101A420028082300AC0041302000C3002030C2002F
:101A52000030C1000030C00023002F082000C70062
:101A620023002E082000C60023002D082000C500F8
:101A720023002C082000C400993189218C310318DD
:101A8200432D442DEC2D4830F4000030F500A031F8
:101A9200CF208C3144302000C3007930C200F930AD
:101AA200C1009A30C00022005B082000C70022005B
:101AB2005A082000C600220059082000C500220052
:101AC20058082000C400993189218C3103186A2DED
:101AD2006B2D842D22005B08F4005A08F30059088C
:101AE200F2005808F100983196208C3172082200D9
:101AF200D5007108D4005508CE005408CD008831B5
:101B020001208C31DC2D42302000C300C730C200DE
:101B1200CC30C100CD30C00022005B082000C700DD
:101B220022005A082000C600220059082000C500E1
:101B3200220058082000C400993189218C310318F1
:101B4200A32DA42DAC2D0430F400A830F500A13152
:101B5200AF218C316B2D41302000C3001E30C200FA
:101B62006630C1006630C00022005B082000C7005A
:101B720022005A082000C600220059082000C50091
:101B8200220058082000C400993189218C310318A1
:101B9200CB2DCC2DD42D0330F400A830F500A1318B
:101BA200AF218C316B2D0130F400A830F500A1314A
:101BB200AF218C316B2D22005B082300CF00220065
:101BC2005A082300CE00220059082300CD0022002B
:101BD20058082300CC00230053082100A30023004F
:101BE20052082100A200230051082100A100230075
:101BF20050082100A00022005F082100A700220057
:101C02005E082100A60022005D082100A500220036
:101C12005C082100A4008731BF278C3121002308F2
:101C2200AB002208AA002108A9002008A800A231BE
:101C320076228C3121002B082300AF0021002A08D4
:101C42002300AE00210029082300AD00210028084E
:101C52002300AC003D302000C300CC30C200CC30A9
:101C6200C100CD30C00023002F082000C700230090
:101C72002E082000C60023002D082000C5002300E6
:101C82002C082000C400993189218C3103184A2E76
:101C92004B2EFF2F1930F4000030F500A031CF2079
:101CA2008C3141302000C3001E30C2006630C100BA
:101CB2006630C00022005F082000C70022005E08D4
:101CC2002000C60022005D082000C50022005C083A
:101CD2002000C400993189218C310318712E722E93
:101CE200922E0430F400A830F500A131AF218C31DE
:101CF20022005F08F4005E08F3005D08F2005C0851
:101D0200F100983196208C3172082200D5007108BA
:101D1200D4005508CE005408CD00883101208C3102
:101D2200BB2E42302000C300C730C200CC30C100FD
:101D3200CD30C00022005F082000C70022005E08EC
:101D42002000C60022005D082000C50022005C08B9
:101D52002000C400993189218C310318B12EB22E92
:101D6200B32E792E0330F400A830F500A131AF2153
:101D72008C31792E22005F082300D30022005E08F6
:101D82002300D20022005D082300D10022005C085B
:101D92002300D000FF2F230033082100A3002300DB
:101DA20032082100A200230031082100A1002300F3
:101DB20030082100A00023004B082100A7002300C7
:101DC2004A082100A600230049082100A50023009B
:101DD20048082100A4008731BF278C312100230845
:101DE200AB002208AA002108A9002008A800A231FD
:101DF20076228C3121002B082300AF0021002A0813
:101E02002300AE00210029082300AD00210028088C
:101E12002300AC003D302000C3004C30C200CC3067
:101E2200C100CD30C00023002F082000C7002300CE
:101E32002E082000C60023002D082000C500230024
:101E42002C082000C400993189218C3103182A2FD3
:101E52002B2FFF2F0830F4000030F500A031CF20E7
:101E62008C31230033082200D000230032082200E4
:101E7200CF00230031082200CE00230030082200C8
:101E8200CD00A13162218C3123003308CB0032080E
:101E9200CA003108C9003008C800FF2F5930F400C9
:101EA2000030F500A031CF208C3122006708803A43
:101EB200D10080305102031D602F0A306602031CDC
:101EC200632F642F742F0430F400A830F500A13181
:101ED200AF218C3122006708CE006608CD00883120
:101EE20001208C31FF2F22006708803AD100803018
:101EF2005102031D7E2F64306602031C812F822F44
:101F0200832F6B2F0330F400A830F500A131AF21ED
:101F12008C316B2F0830F4000030F500A031CF2057
:101F22008C313630F400A830F500A131AF218C316C
:101F32004830F4000030F500A031CF208C31403021
:101F4200F400A830F500A131AF218C311830F40033
:101F52000030F500A031CF208C313B30F400A830A6
:101F6200F500A131AF218C315930F4000030F50079
:101F7200A031CF208C3122006708803AD100803016
:101F82005102031DC62F0A306602031CC92FCA2F35
:101F9200D22F0430F400A830F500A131AF218C31EA
:101FA2006B2F22006708803AD10080305102031D56
:101FB200DC2F64306602031CDF2FE02FE12F6B2F32
:101FC2000330F400A830F500A131AF218C316B2F22
:101FD2005308D100D2015208003A0319F12FFF2F02
:101FE2005108643A03198B2F023A0319CC2E163A80
:0E1FF20003194F2F063A0319E52CFF2F0800A4
:1020080022006F08031909280A2814280030F9004B
:10201800FA009E31D726903164308C31E224903119
:1020280020000C108C100D118E110A302200E600D1
:102038000030E70005302500930020008E1E25287B
:10204800262828280C1429280C108E1F2C282D2807
:10205800492822006908031D322833283F28200018
:102068000D152200E901E90A20008E158E1B3D2876
:102078003E283A28492820000D112200E9012000B5
:102088008E118E1B4828492845289A3114229031F0
:10209800A7313127903166308C31E224903191316B
:1020A800DE21903176308C31E224903120000E1FF1
:1020B8005E285F2821280030F900FA009E31D726D3
:1020C800903164308C31E224903120000E102500CC
:1020D800930108002000BB003008C4003108C50087
:1020E8003208C6003308C7003408C8003508C900DC
:1020F8003608CA003708CB00443086000030870015
:10210800473FB800B81B89288B2801308C2800303D
:102118002000B900BA013908C2003A08C3004208D1
:102128004304031998289928B728C409C509C6097A
:10213800C709C809C909CA09CB09C40A031DB728B0
:10214800C50A031DB728C60A031DB728C70A031DF9
:10215800B728C80A031DB728C90A031DB728CA0A21
:10216800031DB728CB0A2200E11BBB28BC28C028C6
:10217800FD30E205FF30E3056108803A2000B80031
:1021880080303802031DCB2801302200600203187A
:10219800CE28CF28D52801302000BE000030BF004F
:1021A800DD28220061082000BF002200600820000E
:1021B800BE00230037082000C10023003608200095
:1021C800C00042084304031DEA28EB28F028220037
:1021D800621DEF28F028F528FF302000C007FF30E7
:1021E800C13D4F302000CC000030CD002400EF016D
:1021F8006629FF302000CC07FF30CD3D0A30A00013
:10220800A101A201A301A401A501A601A7014408F7
:10221800A8004508A9004608AA004708AB004808D6
:10222800AC004908AD004A08AE004B08AF009C312D
:102238000124903120002108F5002008F400A13184
:102248007B2190317408303E2000B8004C08203EB5
:1022580086000230870038088100FF30BE07FF3053
:10226800BF3DFF30C007FF30C13D0A30A000A101CB
:10227800A201A301A401A501A601A7014408A80081
:102288004508A9004608AA004708AB004808AC0062
:102298004908AD004A08AE004B08AF009D31D6256D
:1022A800903120002008C4002108C5002208C6007B
:1022B8002308C7002408C8002508C9002608CA0042
:1022C8002708CB0020004D08803AB800803038023B
:1022D800031D702901304C02031C73297429A1299C
:1022E80020004408450446044704480449044A04B5
:1022F8004B04031D80298129FD283F08803AB80036
:1023080080303802031D8A2901303E0203188D29C6
:102318008E29FD2820004108803AB8008030380214
:10232800031D982901304002031C9B299C29A129DF
:102338002200E218A029A129FD2820004208430410
:10234800031DA729A829AD292200621DAC29AD29A2
:10235800CA29FF302000CC07FF30CD3D4208430496
:10236800031DB729B829BD292B30BC000030BD009A
:10237800C1292D30BC000030BD003C08B8004C0815
:10238800203E8600023087003808810020004C0873
:10239800203EB8003808A7004108A9004008A80056
:1023A8003B08A531BE25903120002808B100270838
:1023B800B000080021001D159D111D169D16063040
:1023C800890BE429003221009D149D18EC29ED2980
:1023D800E9292200E401E50121001C08A000A1016F
:1023E80020082200E400210021082200E5006508F9
:1023F8002100A100220064082100A0002008A100FB
:10240800A00120082200E400210021082200E500A4
:10241800640821001B04A000220065082100A10017
:1024280020082200E400210021082200E5006408B9
:10243800F1006508F200890D893B8909F300F40071
:1024480001309A31A522913174082200DF00730807
:10245800DE007208DD007108DC0044302000C30093
:102468007F30C200C030C1000030C0004030A90039
:10247800A030A8000030A7000030A60022005F08A6
:102488002000AD0022005E082000AC0022005D089C
:102498002000AB0022005C082000AA009531A92585
:1024A800913120002908C7002808C6002708C50060
:1024B8002608C400883116209131200043082100E5
:1024C800A600200042082100A500200041082100A4
:1024D800A400200040082100A30042302000A900E9
:1024E8001830A8000030A7000030A60021002608F8
:1024F8002000AD00210025082000AC0021002408A0
:102508002000AB00210023082000AA009531A9254E
:102518009131200029082200DF002000280822002D
:10252800DE00200027082200DD0020002608220007
:10253800DC0021001D119D151D129D160630890B0A
:10254800A32A003221009D149D18AB2AAC2AA82A80
:102558002200E401E50121001C08A000A1012008D7
:102568002200E400210021082200E500650821007E
:10257800A100220064082100A0002008A100A001F9
:1025880020082200E400210021082200E500640858
:1025980021001B04A000220065082100A1002008DA
:1025A8002200E400210021082200E5006408F1006F
:1025B8006508F200890D893B8909F300F4000130B0
:1025C8009A31A522913174082200DB007308DA00E1
:1025D8007208D9007108D80044302000C3007F3049
:1025E800C200C030C1000030C0004030A900A03097
:1025F800A8000030A7000030A60022005B082000D9
:10260800AD0022005A082000AC0022005908200022
:10261800AB00220058082000AA009531A925913165
:1026280020002908C7002808C6002708C500260872
:10263800C400883116209131200043082100A600EB
:10264800200042082100A500200041082100A40024
:10265800200040082100A30043302000DD008E3018
:10266800DC008030DB000030DA004430A900A23002
:10267800A8004030A7000030A6002100260820004E
:10268800AD00210025082000AC002100240820000E
:10269800AB00210023082000AA009531A92591311B
:1026A80020002908E1002808E0002708DF002608A4
:1026B800DE0093317123913120005D082200DB0098
:1026C80020005C082200DA0020005B082200D90004
:1026D80020005A082200D800080020005D08803930
:1026E800E2006208EA005D35E2006208EC00DC1FE7
:1026F8007E2B7F2B802B6C146C080319842B852B65
:10270800952B6C0A031D892B8A2B922B0030DD0038
:102718000030DC000030DB000030DA00DC17DD01BF
:102728009D2B0030DD000030DC000030DB00003085
:10273800DA0061088039E2006208EB006B086A067B
:102748000319A72BA82BA92B6A176135E200620889
:10275800EB00E01FB02BB12BB22B6B146B080319E5
:10276800B62BB72BC72B6B0A031DBB2BBC2BC42B5B
:102778000030E1000030E0000030DF000030DE0013
:10278800E017E101CF2B0030E1000030E00000301D
:10279800DF000030DE006C086B020318D42BD52B49
:1027A800192C6A1FD82BD92BDD2B8030E200620848
:1027B800EA066C08E2006208ED006B08E2006208B5
:1027C800EC006D08E2006208EB005A08E2006208BB
:1027D800ED005E08E2006208DA006D08E2006208B7
:1027E800DE005B08E2006208ED005F08E2006208B4
:1027F800DB006D08E2006208DF005C08E2006208A6
:10280800ED006008E2006208DC006D08E200620882
:10281800E0005D08E2006208ED006108E20062087D
:10282800DD006D08E2006208E100ED016B08E200DE
:10283800E3016308E5006C086202E400031CE50399
:102848006508803AE60080306602031D2D2C1A3098
:102858006402031C302C312C692C20005D085C04B8
:102868005B045A04031D392C3B2C01303C2C0030EE
:10287800E2006208ED000030DD000030DC000030CE
:10288800DB000030DA006B08E2006208EC00702C14
:102898006D1C4F2C502C562C6D360138E200620806
:1028A800ED00582C0310ED0C5A1C5B2C5C2C5D2C95
:1028B800ED170130E200DD37DC0CDB0CDA0CE20B43
:1028C8005F2C0130E2006208EC0720006B086C0204
:1028D800031C6F2C702C4C2C6A1B732C742CAC2C86
:1028E8006C08031D782C792C822C0030DD00003018
:1028F800DC000030DB000030DA00A82D5E08DA07C3
:102908005F08DB3D6008DC3D6108DD3D5D1C8D2C0A
:102918008E2C382D6D1C912C922C982C6D360138EC
:10292800E2006208ED009A2C0310ED0C5A1C9D2C55
:102938009E2C9F2CED170130E200DD37DC0CDB0C00
:10294800DA0CE20BA12C0130E2006208EC07382D0A
:102958005D08803AE2006108803A6202031DBE2CDD
:1029680060085C02031DBE2C5F085B02031DBE2CC1
:102978005E085A020318C12CC22CFA2CFF30E20060
:10298800FF30E300FF30E400FF30E5005A085E0244
:10299800E6005B085F3BE7005C08603BE8005D0819
:1029A800613BE9006608E2076708E33D6808E43D23
:1029B8006908E53D6508DD006408DC006308DB00A4
:1029C8006208DA008030E2006208EA06ED09ED0AE2
:1029D8006D08031DF02CF12C022D0130DA070030B0
:1029E800DB3D0030DC3D0030DD3D022D5E08DA02C3
:1029F8005F08DB3B6008DC3B6108DD3B5D085C048D
:102A08005B045A04031D092D0A2D342D6D08031D7E
:102A18000E2D0F2D342D0030DD000030DC0000308D
:102A2800DB000030DA00A82D0130DA35DB0DDC0DD3
:102A3800DD0D890B192DED1F222D232D242D5A1460
:102A48006D1C272D282D2B2D0314ED0D2D2D031076
:102A5800ED0D6C080319312D322D342D0130EC02A7
:102A6800DC1F372D382D182DEB01ED1F3C2D3D2D8A
:102A78004B2D6D087F390319422D432D462DEB014F
:102A8800EB0A4B2D5A1C492D4A2D4B2D432D6B0813
:102A980003194F2D502D7D2D0130DA070030DB3D15
:102AA8000030DC3D0030DD3D5D1C5B2D5C2D7D2D57
:102AB8005A08E2005B08E3005C08E4005D08E500F2
:102AC8000130E600E537E40CE30CE20CE60B662D7A
:102AD8006508DD006408DC006308DB006208DA00D2
:102AE8006C0A0319782D792D7D2D0130E2006208DA
:102AF800EC076C0A0319812D822D872D6C08031DA4
:102B0800862D872D952D0030DD000030DC0000304B
:102B1800DB000030DA006C08031D932D942D952DF1
:102B2800EA016C1C982D992D9B2DDC179F2D7F3069
:102B3800E2006208DC056C36E2006208DD00EA1F8C
:102B4800A62DA72DA82DDD170800200029088039FB
:102B5800AE002E08B3002935AE002E08B900A81F14
:102B6800B62DB72DB82D391439080319BC2DBD2D34
:102B7800CC2D390A031DC12DC22DCA2D0030A90044
:102B88000030A8000030A7000030A600A817D42DF8
:102B98000030A9000030A8000030A7000030A600CF
:102BA8002D088039AE002E08B3062D35AE002E084C
:102BB800B800AC1FE02DE12DE22D381438080319B8
:102BC800E62DE72DF62D380A031DEB2DEC2DF42DFF
:102BD8000030AD000030AC000030AB000030AA007F
:102BE800AC17FE2D0030AD000030AC000030AB005B
:102BF8000030AA0038080319022E032E082E3908BF
:102C0800031D072E082E112E0030A9000030A80041
:102C18000030A7000030A600FF2F2608AE002E08BF
:102C2800F1002C08A2312D22953172082000BF0036
:102C38007108BE003E08AE00AF01B001B101310815
:102C4800B7003008B6002F08B5002E08B4003F08BA
:102C5800AE00AF01B001B1013108BD003008BC00C1
:102C68002F08BB002E08BA002708AE002E08F10076
:102C78002B08A2312D22953172082000BF0071085F
:102C8800BE003E08AE00AF01B001B1012E08B40786
:102C98002F08B53D3008B63D3108B73D3F08AE00B6
:102CA800AF01B001B1012E08BA072F08BB3D3008AB
:102CB800BC3D3108BD3D2808AE002E08F1002A08A9
:102CC800A2312D22953172082000BF007108BE0084
:102CD8003E08AE00AF01B001B1012E08B4072F08BD
:102CE800B53D3008B63D3108B73D3F08AE00AF01ED
:102CF800B001B1012E08BA072F08BB3D3008BC3D12
:102D08003108BD3D0830B435B50DB60DB70D890B8A
:102D1800872E2708AE002E08F1002A08A2312D229E
:102D2800953172082000BF007108BE003E08B40744
:102D38003F08B53D0030B63DB73D2608AE002E0829
:102D4800F1002B08A2312D22953172082000BF0016
:102D58007108BE003E08B4073F08B53D0030B63DD7
:102D6800B73D0830B435B50DB60DB70D890BB62E85
:102D78002608AE002E08F1002A08A2312D2295312E
:102D880072082000BF007108BE003E08B4073F0863
:102D9800B53D0030B63DB73D2708AE002E08F1001E
:102DA8002C08A2312D22953172082000BF0071082D
:102DB800BE003E08BA073F08BB3D0030BC3DBD3DE4
:102DC8002808AE002E08F1002B08A2312D229531DB
:102DD80072082000BF007108BE003E08BA073F080D
:102DE800BB3D0030BC3DBD3D2808AE002E08F100BB
:102DF8002C08A2312D22953172082000BF007108DD
:102E0800BE003E08AE003F08AF00B001B101083077
:102E1800AE35AF0DB00DB10D890B0C2F2E08BA07CA
:102E28002F08BB3D3008BC3D3108BD3D3408AE001D
:102E38003508AF003608B0003708B1001830B13691
:102E4800B00CAF0CAE0C890B232F2E08BA072F0835
:102E5800BB3D3008BC3D3108BD3D0830B435B50D2B
:102E6800B60DB70D890B322F39083807AE00AF0100
:102E7800AF0D2E08823EBE00FF302F3DBF005B2FF6
:102E88000130BA35BB0DBC0DBD0D890B452FB71FE1
:102E98004E2F4F2F502F3A140130B435B50DB60DC3
:102EA800B70D890B512FFF30BE07FF30BF3DBC1F48
:102EB8005E2F5F2F442FB801B71F632F642F802F19
:102EC800FF303405AE00FF303505AF00FF30360562
:102ED800B0007F303705B100310830042F042E04CC
:102EE8000319772F782F7B2FB801B80A802F3A1C47
:102EF8007E2F7F2F802F782F38080319842F852F56
:102F0800AD2F0130BA070030BB3D0030BC3D00306A
:102F1800BD3D3D1C902F912FAD2F3A08AE003B08C8
:102F2800AF003C08B0003D08B1000130B200B13735
:102F3800B00CAF0CAE0CB20B9B2F3108BD003008A3
:102F4800BC002F08BB002E08BA000130BE070030B5
:102F5800BF3D3F08803AAE0080302E02031DB62FD9
:102F6800FF303E02031CB92FBA2FC42F7F30200038
:102F7800BD008030BC000030BB000030BA00F32F29
:102F880020003F08803AAE0080302E02031DCE2F6D
:102F980001303E020318D12FD22FDD2F0030200040
:102FA800BD000030BC000030BB000030BA00B301E7
:102FB800F32F20003E08AE002E08B900FF30BA05F6
:102FC800FF30BB057F30BC050030BD05391CED2F37
:102FD800EE2FEF2FBC173936AE002E08BD00330890
:102FE800AE002E08BD043D08A9003C08A8003B0817
:082FF800A7003A08A60008003A
:103002002200C6003F30C3004308C7004608C30081
:103012004308C800C901CA01CB01CC013E08B60071
:103022003D08B5004730C3004308B7004830A3311C
:1030320021239831220049084607C300430886002D
:1030420001308700810108007030210099000C10C6
:103052008C100C118C110C128C120C138C1323007B
:103062000C108C100C118C110C128C1221000E10F1
:103072008E100E158E110E168E160E178E170D143B
:103082008D140D118D158D1623000D108D140D113B
:103092008D118D16A03021009E0011131D141517DD
:1030A2008B170B178B100B164130200098009601DE
:1030B200970199132100111520001111FF309B0077
:1030C2000C3025009A001E119E119A121A129801B4
:1030D200200091109C141C101C150C138C138C12C4
:1030E2000C128C110C110C108C100D118E116430FD
:1030F2002300D4000030D5004230D300C830D200C3
:103102000030D1000030D0004230CF00C830CE00B5
:103112000030CD000030CC003F30CB008030CA0000
:103122000030C9000030C80008000310730D740D90
:10313200F5007508FB007B08031DA028A128AA281A
:103142000030F4000030F3000030F2000030F100F3
:1031520009297108F5007208F6007308F70074086F
:10316200F8001F30F836F70CF60CF50C890BB32873
:103172007508F9007908FA00F317FF30F105FF30FE
:10318200F205FF30F3050030F4059630FB02FB1F19
:10319200CB28CC28E4287B08803A973E0318D22813
:1031A200D328D428A1280130F436F30CF20CF10C08
:1031B200890BD5280130F5007508FB07031DE228AD
:1031C200E328D428F92820307B02031CE928EA28C6
:1031D200F428A1280130F135F20DF30DF40D890B1D
:1031E200EC280130FB027B08031DF828F928EB28A4
:1031F2007A080319FD28FE280929F109F209F309C1
:10320200F409F10A0319F20A0319F30A0319F40A79
:10321200080023002B082000A50023002A08200014
:10322200A400230029082000A3002300280820006E
:10323200A2007408A5007308A4007208A300710814
:10324200A2002208F5002308F6002408F70025084A
:10325200F8001730F836F70CF60CF50C890B2B2911
:10326200FF307505A00000307605A100200821047A
:10327200031D3C293D295E292208F5002308F6009A
:103282002408F7002508F8000130F535F60DF70D92
:10329200F80D890B46297808770476047504031D16
:1032A2005329542959290230F1000030F2008829AB
:1032B2000330F1000030F2008829200A2104031DA6
:1032C2006329642984292208F5002308F6002408CA
:1032D200F7002508F8000930F535F60DF70DF80D61
:1032E200890B6D29780877047604750403197A2905
:1032F2007C2901307D290030F900FA017908F100BA
:103302007A08F20088290430F1000030F200080047
:10331200003020004005C80000304105C90080305F
:103322004205CA007F304305CB004B084A044904DA
:103332004804031D9D299E29A6290030C3000030A0
:10334200C2000030C1000030C00000304405C80097
:1033520000304505C90080304605CA007F30470568
:10336200CB004B084A0449044804031DB929BA2971
:10337200C2290030C7000030C6000030C50000304E
:10338200C400C31FC529C629DE290030C800003089
:10339200C9000030CA008030CB004008C802410892
:1033A200C93B4208CA3B4308CB3B4B08C3004A080F
:1033B200C2004908C1004808C000C71FE129E2292C
:1033C200FA290030C8000030C9000030CA0080303D
:1033D200CB004408C8024508C93B4608CA3B470817
:1033E200CB3B4B08C7004A08C6004908C50048083D
:1033F200C4008030C3068030C70647084302031D5D
:103402000C2A46084202031D0C2A45084102031DEC
:103412000C2A4408400203180F2A102A122A031009
:10342200132A031408007C080319182A192AA42A4B
:103432002200670823005506031D232A220066087E
:10344200230054060319262A272AA42A70308C3115
:10345200E2249A3122006708F2006608F1000A307D
:10346200F3000030F400A131CC219A31720823001C
:10347200BD007108BC003C183F2A422A25001A16DA
:10348200442A25001A129A1223003D082200D7006E
:1034920023003C082200D600D736D60CD736D60CED
:1034A200560825009800220067082300D500220054
:1034B20066082300D4009131DE219A314230200087
:1034C200C300C830C2000030C1000030C00022007A
:1034D2005F082000C70022005E082000C60022000C
:1034E2005D082000C50022005C082000C40099315C
:1034F20089219A31031C7E2A7F2A9F2A4530200087
:10350200C3007A30C2000030C1000030C000220087
:103512005B082000C70022005A082000C6002200D3
:1035220059082000C500220058082000C400993123
:1035320089219A3103189E2A9F2AA22A20008E15D9
:10354200A42A20008E1108002000A00020080319E0
:10355200AB2AAC2AC02AF41FAF2AB02AC02A7109AA
:10356200A2007209A3007309A4007409A500A20AAB
:103572000319A30A0319A40A0319A50AC82A74087D
:10358200A5007308A4007208A3007108A2007408C1
:10359200730472047104031DCF2AD02AD92A003081
:1035A200F4000030F3000030F2000030F100512B43
:1035B2009630F5007508A100E92A0130F50075087A
:1035C200A1070130A536A40CA30CA20C890BE32A97
:1035D200FE302505031DEE2AEF2ADE2A032B0130D9
:1035E200F5007508A1070130A2070030A33D0030A5
:1035F200A43D0030A53D0130A536A40CA30CA20CBD
:10360200890BFD2AFF302505031D082B092BF02A03
:10361200132B0130A1020130A235A30DA40DA50D7B
:10362200890B0D2BA41B162B172B1D2B02302102ED
:1036320003181C2B1D2B0A2B2118202B212B292B85
:10364200FF30A205FF30A3057F30A405FF30A5059A
:103652000310A10C2108F500F601F701F80118305A
:10366200F535F60DF70DF80D890B312B7508A2040F
:103672007608A3047708A4047808A504200803198F
:10368200432B442B492BF41F472B482B492BA517BF
:103692002508F4002408F3002308F2002208F100B0
:1036A20008002000AB01AC01A401A5015C2B013094
:1036B200F7070030F83DAA01AA0A770884007808C3
:1036C20085001200203A0319672B682B7D2B77089F
:1036D2008400780885000008F73EA000FF30031838
:1036E2000030A10000302102053003192002031C22
:1036F2007B2B7C2B7D2BAA012A08A000A10120088C
:10370200A6002108A70026082704031D892B8A2B5F
:10371200582B942B0130A4000030A5000130F7078C
:103722000030F83DC82B770884007808850000082F
:10373200A000A1012108003A0319A02BC82B2008E0
:103742002B3A03198F2B063A03198B2BC82B7708B8
:103752008400780885000008A0002C08F2002B08DD
:10376200F1000A30F3000030F400A131CC219B318A
:1037720072082000A20020087102A100031CA2030B
:103782002108303EAB000030223DAC008F2B770881
:103792008400780885000008D03EA000FF3003189E
:1037A2000030A100003021020A3003192002031C5C
:1037B200DB2BDD2B0130DE2B0030A200A30122081F
:1037C200A8002308A90028082904031DE92BEA2BD5
:1037D200A82B24082504031DEF2BF02BFC2B2B090F
:1037E200A0002C09A100A00A0319A10A2008F700D1
:1037F2002108F800002C2C08F8002B08F70008001C
:10380200F3012830860000308700473FF100F11FA6
:103812000B2C0C2C2D2C2000A809A909AA09AB09F4
:10382200AC09AD09AE09AF09A80A031D2B2CA90AE0
:10383200031D2B2CAA0A031D2B2CAB0A031D2B2CB8
:10384200AC0A031D2B2CAD0A031D2B2CAE0A031D43
:103852002B2CAF0AF301F30A2030860000308700D8
:10386200473FF100F11F362C372C562C2000A009BF
:10387200A109A209A309A409A509A609A709A00AE1
:10388200031D562CA10A031D562CA20A031D562CF9
:10389200A30A031D562CA40A031D562CA50A031DB8
:1038A200562CA60A031D562CA70A20002008210424
:1038B2002204230424042504260427040319622C69
:1038C200632CB62CF201F20A722CA035A10DA20DC6
:1038D200A30DA40DA50DA60DA70D0130F1007108D1
:1038E200F207A71F752C762C662C27082F02031DC2
:1038F200942C26082E02031D942C25082D02031D4C
:10390200942C24082C02031D942C23082B02031D43
:10391200942C22082A02031D942C21082902031D3B
:10392200942C20082802031C972C982CA82C2008E1
:10393200A8022108A93B2208AA3B2308AB3B240882
:10394200AC3B2508AD3B2608AE3B2708AF3BA7366C
:10395200A60CA50CA40CA30CA20CA10CA00C01306B
:10396200F202031DB52CB62C762C73080319BA2C5F
:10397200BB2CD92CA809A909AA09AB09AC09AD0924
:10398200AE09AF09A80A031DD92CA90A031DD92C17
:10399200AA0A031DD92CAB0A031DD92CAC0A031D9C
:1039A200D92CAD0A031DD92CAE0A031DD92CAF0A9E
:1039B20020002808A0002908A1002A08A2002B083C
:1039C200A3002C08A4002D08A5002E08A6002F088D
:1039D200A7000800230023082000ED00230022088E
:1039E2002000EC00230021082000EB002300200827
:1039F2002000EA005D08ED005C08EC005B08EB00CB
:103A02005A08EA006A08DE006B08DF006C08E00072
:103A12006D08E1001730E136E00CDF0CDE0C890B9B
:103A22000C2DFF305E05E20000305F05E300620806
:103A3200813EE800FF30633DE9006908803ADE001C
:103A420080305E02031D272D17306802031C2A2DC9
:103A52002B2D2C2DD52D2000E91B302D312D8E2D17
:103A6200FF30DE00FF30DF007F30E0000030E10099
:103A7200680A3F2DE137E00CDF0CDE0C890B3B2D91
:103A82006108E7006008E6005F08E5005E08E40000
:103A92006A086405DE006B086505DF006C086605D0
:103AA200E0006D086705E100610860045F045E04E0
:103AB200031D5C2D5D2D5E2D2B2D6A08DE006B082B
:103AC200DF006C08E0006D08E1001F30E136E00C19
:103AD200DF0CDE0C890B672D610860045F045E0455
:103AE2000319742D752D7D2D6408EA076508EB3DD9
:103AF2006608EC3D6708ED3D6409DE006509DF00FC
:103B02006609E0006709E1005E08EA055F08EB0567
:103B12006008EC056108ED05CD2D6A08DE006B0832
:103B2200DF006C08E0006D08E1001F30E136E00CB8
:103B3200DF0CDE0C890B972D610860045F045E04C4
:103B4200031DA42DA52DAE2D0030ED000030EC009C
:103B52000030EB000030EA00CD2D6A08DE006B0871
:103B6200DF006C08E0006D08E1000130DE35DF0D9A
:103B7200E00DE10D890BB72D610860045F045E045E
:103B82000319C42DC52DCD2DBF30ED008030EC00C2
:103B92000030EB000030EA006D08DD006C08DC004C
:103BA2006B08DB006A08DA000800F30120308600A7
:103BB20000308700473FF100F11FE02DE12D022E7A
:103BC2002000A009A109A209A309A409A509A6091F
:103BD200A709A00A031D002EA10A031D002EA20A96
:103BE200031D002EA30A031D002EA40A031D002E8E
:103BF200A50A031D002EA60A031D002EA70AF30123
:103C0200F30A2830860000308700473FF100F11F99
:103C12000B2E0C2E2F2E2000A809A909AA09AB09E8
:103C2200AC09AD09AE09AF09A80A031D2B2EA90ADA
:103C3200031D2B2EAA0A031D2B2EAB0A031D2B2EAE
:103C4200AC0A031D2B2EAD0A031D2B2EAE0A031D3B
:103C52002B2EAF0A0130F1007108F3067430860092
:103C6200003087000830F10000301E00F10B362EC4
:103C7200200020082104220423042404250426040D
:103C820027040319452E462EA22EF201F20A552EC2
:103C9200A035A10DA20DA30DA40DA50DA60DA70D76
:103CA2000130F1007108F207A71F582E592E492E34
:103CB200F435F50DF60DF70DF80DF90DFA0DFB0DB6
:103CC20027082F02031D7F2E26082E02031D7F2E9A
:103CD20025082D02031D7F2E24082C02031D7F2E92
:103CE20023082B02031D7F2E22082A02031D7F2E8A
:103CF20021082902031D7F2E20082802031C822E80
:103D0200832E942E2008A8022108A93B2208AA3B50
:103D12002308AB3B2408AC3B2508AD3B2608AE3B51
:103D22002708AF3B7414A736A60CA50CA40CA30C51
:103D3200A20CA10CA00C0130F202031DA12EA22E96
:103D4200592E73080319A62EA72EC52EF409F509BC
:103D5200F609F709F809F909FA09FB09F40A031D3A
:103D6200C52EF50A031DC52EF60A031DC52EF70A38
:103D7200031DC52EF80A031DC52EF90A031DC52E03
:103D8200FA0A031DC52EFB0A74082000A00075085C
:103D9200A1007608A2007708A3007808A400790899
:103DA200A5007A08A6007B08A7000800EC2FA03126
:103DB200E5209E310230F4000030F500A031CF2022
:103DC2009E310630F400A830F500A131AF219E31BA
:103DD2000C30F4000030F500A031CF209E3163306A
:103DE200F400A830F500A131AF219E314430F40037
:103DF2000030F500A031CF209E315F30F400A830B2
:103E0200F500A131AF219E314C30F4000030F500B5
:103E1200A031CF209E314A30F400A830F500A13104
:103E2200AF219E311230F4000030F500A031CF20D6
:103E32009E311230F400A830F500A131AF219E313D
:103E42001C30F4000030F500A031CF209E316F30DD
:103E5200F400A830F500A131AF219E315230F400B8
:103E62000030F500A031CF209E312A30F400A83076
:103E7200F500A131AF219E315C30F4000030F50035
:103E8200A031CF209E316D30F400A830F500A13171
:103E9200AF219E31FF2F0230F4000030F500A03137
:103EA200CF209E310030F400A830F500A131AF21BF
:103EB2009E314230F4000030F500A031CF209E3117
:103EC2001E30F400A830F500A131AF219E3112302E
:103ED200F4000030F500A031CF209E313030F400E4
:103EE200A830F500A131AF219E315230F4000030EC
:103EF200F500A031CF209E310030F400A830F5004B
:103F0200A131AF219E31FF2F0230F4000030F500C5
:103F1200A031CF209E312430F400A830F500A13129
:103F2200AF219E314230F4000030F500A031CF20A5
:103F32009E310C30F400A830F500A131AF219E3142
:103F42001230F4000030F500A031CF209E31303025
:103F5200F400A830F500A131AF219E315230F400B7
:103F62000030F500A031CF209E310030F400A8309F
:103F7200F500A131AF219E31FF2FA031E5209E3106
:103F82004630F4000030F500A031CF209E311830C9
:103F9200F400A830F500A131AF219E315230F40077
:103FA2000030F500A031CF209E312A30F400A83035
:103FB200F500A131AF219E315C30F4000030F500F4
:103FC200A031CF209E316D30F400A830F500A13130
:103FD200AF219E31FF2F7A08003A0319F12FFF2FEC
:103FE2007908003A0319D82E013A03194C2F033AE3
:0E3FF2000319852F013A0319BE2FFF2F080077
:10419E007408803EA1310221A03108006400800124
:1041AE000131890BD6280034F10071080319E0287B
:1041BE00E128E3280B16E4280B1208000130A13188
:1041CE000221A0310630F4003030890BEC28F40BBC
:1041DE00EC280032080020008E150B30F20026303D
:1041EE00F1005E30890BF928F10BF928F20BF92852
:1041FE0020008E110800F30020000C116430890B92
:10420E0006297308F2000430F236890B0B29720866
:10421E00A231C822A1316430890B13297308A2314F
:10422E00C822A1310800F30020000C156430890B60
:10423E001E297308F2000430F236890B2329720806
:10424E00A231C822A1316430890B2B297308A23107
:10425E00C822A13108007108D03EF300FF30723D34
:10426E00F400003074020A3003197302031C402953
:10427E004229013043290030F500F6017508F1009E
:10428E007608F20008007108BF3EF300FF30723D61
:10429E00F400003074021A3003197302031C5829FB
:1042AE005A2901305B290030F500F6017508F1003E
:1042BE007608F200080045302200BD00A830BE008E
:1042CE005008C2004F08C1004E08C0004D08BF0084
:1042DE00BE3098310120A131BE30F4000130F5001E
:1042EE00A131AF21A13108007508803AF600803067
:1042FE007602031D84290130740203188729882948
:10430E0094297409F6007509F700F60A0319F70ADD
:10431E007608F4007708F50094290800F500750872
:10432E00F3007308F4009F290130F3007308F507BA
:10433E0075088600023087000108031DA729A829E9
:10434E009B2974087502F100F201F11BF2030800BB
:10435E00F701F801C0297408770784007508783DC5
:10436E0085000008A1311A21A1310130F707003074
:10437E00F83D7408770784007508783D85001200B3
:10438E00031DCA29CB29B2290800F501F601711CBB
:10439E00D129D229D6297308F5077408F63D0130C4
:1043AE00F335F40D890BD7290130F236F10C890B58
:1043BE00DC2971087204031DE529E629CE29760849
:1043CE00F2007508F1000800F501F50A20307106BB
:1043DE0072040319F329F429042A7108F73EF30035
:1043EE00FF30723DF4000030740205300319730281
:1043FE00031C022A032A042AF5017508F300F401AE
:10440E007308F1007408F2000800F8007208F60054
:10441E007108F5007808F3007308F7007708860036
:10442E0002308700F70A7608F4007508F300F50AE3
:10443E000319F60A73088400740885000008C03F4B
:10444E008908031D2B2A2C2A152A0800F900F501CC
:10445E00F6017108F300F4017308F7007408F80010
:10446E00791C3A2A3B2A3F2A7708F5077808F63D49
:10447E000130F735F80D890B402A0310F90C790835
:10448E00031D4A2A4B2A372A7608F2007508F100D6
:10449E0008007708BF3E2000A000FF30783DA10045
:1044AE00003021021A3003192002031C5F2A612AF0
:1044BE000130622A0030A200A3012208F90023086D
:1044CE00FA0079087A0403196D2A6E2A752A2030AB
:1044DE007704F70000307804F800752A08002300EE
:1044EE0027082100AF00230026082100AE0023007C
:1044FE0025082100AD00230024082100AC002B0864
:10450E00AF002A08AE002908AD002808AC00FF3025
:10451E00AC05FF30AD05FF30AE057F30AF052F087F
:10452E00AB002E08AA002D08A9002C08A800080030
:10453E002000A600A401A501B72A2308A000A1010E
:10454E002008F1002108F2007908A2002208F300E9
:10455E00A5311025A23101302000A4070030A53D61
:10456E0024082607A00020088600023087000108D4
:10457E00A1002108A3002308031DC62AC72AA42AC6
:10458E000800F100F11DCC2ACD2AD02A20000C17EC
:10459E00D22A20000C13711DD52AD62AD82A8C17A0
:1045AE00D92A8C13F11CDC2ADD2ADF2A8C16E02A8C
:1045BE008C12711CE32AE42AE62A0C16E72A0C1246
:1045CE008C158530890BE92A000020008C1185306E
:1045DE00890BEF2A0000080020000D150B30F200A9
:1045EE002630F1005E30890BFA2AF10BFA2AF20B13
:1045FE00FA2A20000C140B30F2002630F1005E3047
:10460E00890B072BF10B072BF20B072B20000D113B
:10461E000B30F2002630F1005E30890B142BF10BBB
:10462E00142BF20B142B2200EB01EB0A05302500A4
:10463E00930008002200BA003608BC003508BB0003
:10464E002300B401B501432B3B30B80038082000DD
:10465E00EE0022003708B90039082000EF002200D2
:10466E003A088931CA21A33120006E082300B4070D
:10467E0020006F082300B53D22003B0884003C0853
:10468E0085001200031D4C2B4D2B2B2B23003508C0
:10469E002200B600230034082200B50008002000D6
:1046AE000C100130A031DB20A331FC01FC0A2200EA
:1046BE00EF01EF0A250093012300C601C701003068
:1046CE002200DF000030DE000030DD000030DC00B4
:1046DE003F302300D3008030D2000030D1000030B4
:1046EE00D00000302200DB000030DA000030D900AC
:1046FE000030D8003F302300CF008030CE00003095
:10470E00CD000030CC00080042302000C300F03055
:10471E00C2000030C1000030C00022005F0820003F
:10472E00C70022005E082000C60022005D0820009F
:10473E00C50022005C082000C40099318921A331F4
:10474E00031CAA2BAB2BCB2B45302000C3008C3087
:10475E00C200A030C1000030C00022005B08200063
:10476E00C70022005A082000C60022005908200067
:10477E00C500220058082000C40099318921A331B8
:10478E000318CA2BCB2BCE2B2200ED01ED0A08000D
:10479E00003071052000A00000307205A1008030AD
:1047AE007305A2007F307405A300230822042104A0
:1047BE002004031DE32BE42BEC2B0030F40000301F
:1047CE00F3000030F2000030F10000307505A0005B
:1047DE0000307605A10080307705A2007F30780585
:1047EE00A3002308220421042004031DFF2B002C08
:1047FE00082C0030F8000030F7000030F6000030D2
:10480E00F50078087406031D162C77087306031D31
:10481E00162C76087206031D162C750871060319E0
:10482E00192C1A2C1C2C03101D2C0314080022000A
:10483E006C080319232C242C472C5F082000C3007E
:10484E0022005E082000C20022005D082000C10088
:10485E0022005C082000C0004230C7002030C60095
:10486E000030C5000030C40099318921A4310318ED
:10487E00412C422C6C2C2200EC0120008C106C2C54
:10488E0042302000C3004830C2000030C10000306A
:10489E00C00022005F082000C70022005E08200032
:1048AE00C60022005D082000C50022005C08200022
:1048BE00C40099318921A4310318662C672C6C2C05
:1048CE002200EC01EC0A20008C1408004E30F4009B
:1048DE00EB30890B702CF40B702C00000330A231DE
:1048EE00C822A4311330F4002D30890B7C2CF40B2C
:1048FE007C2C00000330A231C822A431C830003213
:10490E00890B862C0330A231C822A431F23000323A
:10491E000032890B8E2C0032003200320230A2316E
:10492E00C822A431A0300032890B9A2C2830A13134
:10493E000221A431C830890BA22CC830890BA52CBA
:10494E000C30A1310221A431C830890BAC2C0630B9
:10495E00A1310221A431C830890BB32C8030A13192
:10496E000221A431C830890BBA2C0800F701F41FBC
:10497E00C12CC22CC92CF309F409F30A0319F40A49
:10498E00F701F70AF21FCC2CCD2CD22CF109F2092B
:10499E00F10A0319F20A710872040319D72CD82CE4
:1049AE00012DF601F60AE42C0130F135F20D890BDA
:1049BE00DC2C0130F5007508F607F21FE72CE82C09
:1049CE00DB2C72087402031DEE2C71087302031C9B
:1049DE00F12CF22CF62C7108F3027208F43B013024
:1049EE00F236F10C890BF72C0130F602031D002D67
:1049FE00012DE82C77080319052D062D0B2DF30933
:104A0E00F409F30A0319F40A7408F2007308F100AA
:104A1E00080073080319142D152D1A2D7308031D84
:104A2E00192D1A2D1F2D710880310320A531652DEA
:104A3E007308033E86000130870016000104031937
:104A4E00292D2A2D492D7308033E8600013087003B
:104A5E00403FF400413FF500730A860001308700A5
:104A6E00403FF600413FF7007708803AF80075089E
:104A7E00803A7802031D452D740876020318482DDE
:104A8E00492D652D7108F4007308860001308700EA
:104A9E00730A84000130850000080107F5007508CF
:104AAE0086000130870074088100730A8600013089
:104ABE0087000130810741310318810A0800200068
:104ACE000E1422006E0803196D2D6E2D782D0130F7
:104ADE00F9000030FA009E31D726A531A031F22020
:104AEE00A53122006D0803197D2D7E2D9D2D0230DE
:104AFE00F9000030FA009E31D726A5312000A00122
:104B0E00A101A031F220A53101302000A007003014
:104B1E00A13D2108803AFB0080307B02031D992DB8
:104B2E0003302002031C9C2D9D2D882D20000C107F
:104B3E00B22D20000E1FA42DA52DB22D2200EE01A8
:104B4E00ED010130A031DB20A531FC01FC0A200073
:104B5E000E102200EF0122006E08031DB72DB82D96
:104B6E00A02D6D08031DBC2DBD2DA02D080020000D
:104B7E00AE002200621CC42DC52DCE2D20002E08A5
:104B8E00FA007A08F9002708A2319F22A5312000E9
:104B9E00A91BD22DD32DD82D2908AD002808AC0085
:104BAE00DA2DAC01AD01AA01AB01EE2D2030F100E2
:104BBE000030F20020002E08FA007A08F300A5312A
:104BCE001025A53101302000AA070030AB3D2B087F
:104BDE00803AFA002D08803A7A02031DF82D2C082F
:104BEE002A02031CFB2DFC2DDD2D22006218002E47
:104BFE00012E0A2E20002E08FA007A08F900270846
:104C0E00A2319F22A53120002708A1319521A5317F
:104C1E0020002C087107A7002D08723DA80008007F
:104C2E00F6007608F5007508F9007208F8007108AC
:104C3E00F7000130F3020030F43B730A031D2B2EF4
:104C4E00740A031D2B2E2C2E3B2EF101F201712E18
:104C5E000130F5007508F9070130F7070030F83D0F
:104C6E000130F3020030F43B7908860001308700F2
:104C7E0001080319432E442E632E7708840078080A
:104C8E008500120003194C2E4D2E632E73087404EA
:104C9E000319522E532E632E770884007808850050
:104CAE000008F500790886000130870001087506B6
:104CBE000319622E632E2F2E79088600013087008D
:104CCE00770884007808850000080102F100F201DF
:104CDE00031CF2030800F701F21F762E772E7E2EAC
:104CEE00F109F209F10A0319F20AF701F70AF41FA2
:104CFE00812E822E8B2EF309F409F30A0319F40A7E
:104D0E000130F5007508F706F801F9017108720413
:104D1E000319922E932EC22EF601F60A9F2E013003
:104D2E00F135F20D890B972E0130F5007508F60757
:104D3E00F21FA22EA32E962E0130F835F90D890BF7
:104D4E00A42E72087402031DAE2E71087302031C8A
:104D5E00B12EB22EB72E7108F3027208F43B7814FE
:104D6E000130F236F10C890BB82E0130F602031D1C
:104D7E00C12EC22EA32E77080319C62EC72ECC2EF7
:104D8E00F809F909F80A0319F90A7908F2007808FE
:104D9E00F100080098312520A631A4316D24A631EA
:104DAE00A031E520A6310130A031DB20A631FC0177
:104DBE00FC0A2200EF01EB011430E6000030E700A0
:104DCE0022006F08031DEC2EED2EF82E0030F90098
:104DDE00FA009E31D726A63164308C31E224A631FA
:104DEE00032F0330F9000030FA009E31D726A6318A
:104DFE0070308C31E224A63120000E1F072F082FB1
:104E0E00102F0E140E1B0C2F0D2F092F9031042076
:104E1E00A6319A311422A63120008E1A172F182F80
:104E2E001C2F8E1F1B2F1C2F032FA7319727A63148
:104E3E002200EB016E08031D252F262F2B2F6D0848
:104E4E0003192A2F2B2FE72EA5316625A631E72E23
:104E5E008031BB28250012082000DA00DB015A0839
:104E6E00DB00DA015A082300C60020005B0823008D
:104E7E00C700250011082000DA00DB015A082300C4
:104E8E00C60420005B082300C70446084704031924
:104E9E00512F522F962F3E302000A9002730A80008
:104EAE00EF30A7009E30A60023004608F100470809
:104EBE00F200F301F40100309A31A522A7317408F3
:104ECE002000AD007308AC007208AB007108AA0098
:104EDE009531A925A73120002908C3002808C20052
:104EEE002708C1002608C0004430C7007A30C6002B
:104EFE000030C5000030C40088311620A7312000D4
:104F0E0043082300B300200042082300B200200013
:104F1E0041082300B100200040082300B000080023
:104F2E0022006F0803199C2F9D2FA82FEF01003030
:104F3E00F900FA009E31D726A73164308C31E22475
:104F4E00A73120008E1AAC2FAD2FB12F8E1FB02F90
:104F5E00B12FCC2F8E1FB42FB52FC12F7C08031D60
:104F6E00B92FBA2FD02F0130A031DB20A731FC0191
:104F7E00FC0AD02F7C080319C52FC62FD02F003066
:104F8E00A031DB20A731FC01D02FA3315623A7314E
:104F9E00FF2F22006B08031DD52FD62FD92FA2313C
:104FAE00F322A73120008D19DD2FDE2FE22F2200F4
:104FBE00EE01EE0AFF2F9A311422A731A7313127C5
:104FCE00A73166308C31E224A7319131DE21A73131
:104FDE0076308C31E224A731A4311E24A731A331BF
:104FEE008B23A73122006D080319FE2FFF2FA82F48
:104FFE000800203420342034203420340034463449
:10500E005234453451342E34003420344C344F3421
:10501E0041344434003444345234493456344534E3
:10502E00003442345234453441344B34003453341A
:10503E00543441344C344C34003420344F345634D0
:10504E0045345234003450344F345734453452348E
:10505E0000344534523452344F34523400343034E8
:10506E0030342E3430340034203430343034303454
:10507E0000343034303430343034003425342E346F
:10508E00313466340034563470342D347034003478
:10509E0049344E34463400344E3441344E340034A8
:1050AE0069346E34663400346E3461346E340034D8
:1050BE0042344C34543400344B3448347A34003453
:1050CE006C346634003425346434003425340034B2
:0450DE005634003410
:020000040001F9
:04000E00E4EFFFD844
:00000001FF
